:020000040800F2
:100000000050002071210008292000082F2000083E
:10001000352000083B2000084120000800000000B7
:100020000000000000000000000000004720000861
:1000300053200008000000005F2000086B2000082B
:10004000B9210008B9210008B9210008B921000828
:10005000B9210008B9210008B9210008772000085B
:100060008520000893200008A1200008B92100087D
:10007000B9210008B9210008B9210008B9210008F8
:10008000B9210008B9210008B9210008B9210008E8
:10009000B9210008B9210008B9210008AF200008E3
:1000A000B9210008B9210008B9210008B9210008C8
:1000B000BD200008D1200008E5200008B921000873
:1000C000B9210008B9210008B9210008B9210008A8
:1000D000B9210008B9210008B9210008B921000898
:1000E000B9210008B9210008B9210008000000006A
:1000F0000000000000000000000000000000000000
:0C01000000000000000000005FF808F1A3
:10010C0010B5054C237833B9044B13B10448AFF345
:10011C0000800123237010BD780000200000000037
:10012C001858000808B5034B1BB103490348AFF33B
:10013C00008008BD000000007C000020185800085A
:10014C0080B483B000AF78607B680E4A82FB0312E8
:10015C009210DB17D31ADBB21B01D8B27A68094BA9
:10016C0083FB02139910D317C91A0B469B000B443F
:10017C005B00D11ACBB20344DBB218460C37BD4638
:10018C0080BC70476766666680B483B000AF034678
:10019C00FB71FB791B09DBB21A4613469B00134417
:1001AC005B001A46FB7903F00F03134418460C3717
:1001BC00BD4680BC7047000090B589B004AF0446C2
:1001CC00084611461A462346FB710346BB710B4683
:1001DC007B7113463B71FB791846FFF7B1FF034661
:1001EC003B72BB791846FFF7ABFF03467B727B79FA
:1001FC001846FFF7A5FF0346BB723B791846FFF77D
:10020C009FFF0346FB7297F820301846FFF798FFC4
:10021C0003463B7397F824301846FFF791FF0346CB
:10022C007B7397F828301846FFF78AFF0346BB7399
:10023C004FF47A7302930723019307F10803009399
:10024C0001230022D021034802F086FD00BF1437A1
:10025C00BD4690BD9400002080B586B004AF4FF42D
:10026C007A730293072301933B46009301230022E8
:10027C00D0211F4802F06AFE3B781846FFF784FF36
:10028C000346DAB21B4B1A707B781846FFF77CFFDB
:10029C000346DAB2174B5A70BB781846FFF774FF57
:1002AC000346DAB2134B9A70FB781846FFF76CFFD3
:1002BC000346DAB20F4BDA703B791846FFF764FF4E
:1002CC000346DAB20B4B1A717B791846FFF75CFFC9
:1002DC000346DAB2074B5A71BB791846FFF754FF45
:1002EC000346DAB2034B9A7100BF0837BD4680BD96
:1002FC00940000206003002080B485B000AFF8604B
:10030C00B9607A603B60FB681B781A469200134414
:10031C005B00DAB2FB6801331B781344DAB2BB68BA
:10032C001A70FB6802331B781A46920013445B0068
:10033C00DAB2FB6803331B781344DAB27B681A70A9
:10034C00FB6804331B781A464FF47A7303FB02F2F2
:10035C00FB6805331B781946642301FB03F31A442D
:10036C00FB6806331B7819460B469B000B445B005D
:10037C001344FA68073212781A443B681A60FB6817
:10038C0008331B781A46920013445B00DAB2FB6800
:10039C0009331B781344DAB2BB691A70FB680A3351
:1003AC001B781A46920013445B00DAB2FB680B33DD
:1003BC001B781344DAB2FB691A70FB680C331B7898
:1003CC001A46920013445B00DAB2FB680D331B78BB
:1003DC001344DAB23B6A1A7000BF1437BD4680BCB6
:1003EC0070470000B0B58EB004AF01F0E1FE00F034
:1003FC00C5FD00F01FFF00F035FE00F07FFE00F0A1
:10040C0003FE00F0C9FE04F0FDFC642001F032FF95
:10041C0004F0C2FCA04804F0D5F8A04804F0D2F8CF
:10042C009F4804F07DF818230293042301931A23A8
:10043C000093052314221E211420FFF7BDFE4FF458
:10044C00967001F017FF01F0F3FB0A2001F012FF88
:10045C009449954801F04AFC924B9B781A46914B73
:10046C00DB789249924804F01FFD8E4B1B781A469C
:10047C008C4B5B788F49904804F016FD8F4B9B7921
:10048C001A468F4B1B689A420CBF01230023FB7743
:10049C008A4B5A798B4B1B789A420CBF0123002351
:1004AC00BB77864B1A79884B1B789A420CBF012379
:1004BC0000237B77814B9A78844B1B789A420CBF34
:1004CC00012300233B777D4B5A78814B1B789A4252
:1004DC000CBF01230023FB76784B1A787D4B1B78DD
:1004EC009A422CBF01230023BB76FA7FBB7F1A40B4
:1004FC007B7F1A403B7F1A40FB7E1A40BB7E134029
:10050C00002B14BF012300237B767B7E002B06D0AF
:10051C0000224FF40051704802F0ABF905E00122C3
:10052C004FF400516C4802F0A4F96C4B1B68002B83
:10053C0089D06A4B00221A60694B1968694B83FB9E
:10054C000132CB17D21A13465B0013445B00CA1A54
:10055C00052A3FF678AF01A353F822F08105000875
:10056C00A105000853040008750700081F0F0008B8
:10057C00170B00080121002004F025FC4C4804F066
:10058C007EFC0121012004F01EFC4B4804F077FC9A
:10059C0000F0CFBC544B1B68002B19D0534B6FF0A1
:1005AC0001021A60524B00221A60524B01221A604F
:1005BC004D4B00221A6004F0EFFB0121002004F0E7
:1005CC0002FC4D4804F05BFC0021012004F0FBFB15
:1005DC00464B1B680133454A1360454B1B6801337E
:1005EC00434A1360454B1B68092B0ADC434B1B68C1
:1005FC00002B06DB414B1A683C4B1B68D1B2404ABE
:10060C00D1543E4B1B680B2B40F0A58000237B6222
:10061C0013E03B4A7B6A13441A783A497B6A0B44D1
:10062C001B789A4203D0384B00221A6008E0364BF4
:10063C0001221A607B6A01337B627B6A052BE8DD41
:10064C0000233B6207E02E4A3B6A134400221A70D7
:10065C003B6A01333B623B6A052BF4DD2A4B1B687A
:10066C00002B57D01E4B02221A601C4B01221A6021
:10067C0004F092FB0121002004F0A5FB234804F0B8
:10068C00FEFB234B01221A604FF4FA6001F0F2FDDD
:10069C001A4B00221A6066E0E800002030010020AE
:1006AC007801002024020020C001002030580008EE
:1006BC009002002044580008A4020020600300208F
:1006CC00180000205B0300205A0300205E0300206A
:1006DC005D0300205C03002000100140040000209A
:1006EC00B8020020ABAAAA2AD4020020C80200201B
:1006FC00CC020020D80200205458000840020020F0
:10070C00BC02002008000020C4020020645800082D
:10071C00D00200209A4B01221A609A4B01221A60D7
:10072C00994B01221A6004F037FB0121002004F0E0
:10073C004AFB964804F0A3FB0121012004F043FB83
:10074C00934804F09CFB4FF4FA6001F093FD914B3D
:10075C0000221A6007E0904B1B68002B02DB8F48CD
:10076C0004F08DFB00BFE4E3864B1B68002B3BD0F1
:10077C00844B00221A6004F00FFB0121002004F0CE
:10078C0022FB874B1B791A46854B5B791946844BA8
:10079C009B7900930B468349834804F085FB824880
:1007AC0004F06DFB7E4B9B781A467D4B5B781946AB
:1007BC007B4B1B7800930B467C497D4804F074FB03
:1007CC000121012004F0FFFA794804F058FB0121C3
:1007DC00002004F0F8FA0F2004F07EFA754B00228A
:1007EC001A60754B00221A60724B1B680133714AF8
:1007FC001360704B1B68012B40F395836D4B1B688A
:10080C00023B6D4A1360634B1A686B4B1B68D1B289
:10081C006A4AD1545F4B1B680B2B00F2458101A235
:10082C0052F823F0610800086908000871080008F4
:10083C007908000881080008890800089108000858
:10084C0099080008A1080008A9080008B50A0008C2
:10085C00B10800085A4804F012FB25E1594804F08D
:10086C000EFB21E1584804F00AFB1DE1574804F047
:10087C0006FB19E1564804F002FB15E1554804F05B
:10088C00FEFA11E1544804F0FAFA0DE1534804F071
:10089C00F6FA09E1524804F0F2FA05E1514804F085
:1008AC00EEFA01E10023BB7200237B7200237B6014
:1008BC000023FB700023BB7000237B70381D07F1F5
:1008CC00090207F10A01FB1C0293BB1C01937B1C60
:1008DC00009303463948FFF70FFDBB7A002B04D079
:1008EC00BB7A1F2B01D8012300E000237B747B7C97
:1008FC0003F001037B747B7A002B04D07B7A0C2BE6
:10090C0001D8012300E000233B743B7C03F001037E
:10091C003B747B68B3F5FA6F06DD7B6840F6B83242
:10092C00934201DC012300E00023FB73FB7B03F00B
:10093C000103FB737B78172B94BF01230023BB733C
:10094C00BB783B2B94BF012300237B73FB783B2BA1
:10095C0094BF012300233B737B7C002B44D03B7C56
:10096C00002B41D0FB7B002B3ED0BB7B002B3BD024
:10097C007B7B002B38D03B7B002B35D0012334E024
:10098C00B8020020D402002004000020785800088F
:10099C008858000840020020C8020020985800081F
:1009AC00600300209C580008E0020020B4580008A6
:1009BC00F4020020DC020020300300203C03002065
:1009CC00C8580008CC580008D0580008D458000863
:1009DC00D8580008DC580008E0580008E458000813
:1009EC00E8580008EC5800080023FB72FB7A03F06F
:1009FC000103FB727B68A3F5FA637B60FB7A002B27
:100A0C002BD0AA4B04221A60A94B01221A6004F0C5
:100A1C00C3F90121002004F0D6F9A64804F02FFAFE
:100A2C00A54B00221A60A54B01221A600C2004F081
:100A3C0053F9F878BC787D78BB7A7A7A7968C9B240
:100A4C0002910192009300232A462146FFF7B4FB42
:100A5C004FF4FA6001F00EFC25E0944B03221A606F
:100A6C00934B01221A6004F097F90121002004F045
:100A7C00AAF9934804F003FA0121012004F0A3F928
:100A8C00904804F0FCF98C4B00221A608E4B01222A
:100A9C001A608A4B01221A600C2004F01DF94FF4E5
:100AAC00FA6001F0E7FB00BF884B1B68032B03D1F6
:100ABC000621002004F087F9844B1B68052B03D119
:100ACC000B21002004F07FF9804B1B68092B03D10C
:100ADC000121012004F077F97C4B1B680B2B03D10F
:100AEC000621012004F06FF9784B1B680D2B03D104
:100AFC000B21012004F067F9744B1B680F2B40F09D
:100B0C0012820C2004F0E8F80DE26F4B1B68002BEE
:100B1C006DD06D4B00221A6004F03EF96C4B1B68D3
:100B2C00012B2DD10121002004F04DF9694B1B79CB
:100B3C001A46684B5B791946664B9B7900930B46BA
:100B4C006549664804F0B0F9644804F098F9614BC3
:100B5C009B781A465F4B5B7819465E4B1B7800936B
:100B6C000B465F495F4804F09FF90121012004F016
:100B7C002AF95C4804F083F9554B00221A6029E0ED
:100B8C000121002004F01FF9574B1B781A46574BD4
:100B9C001B781946564B1B6800930B464E4955481B
:100BAC0004F082F9534804F06AF9534B1B781A4647
:100BBC00524B1B781946524B1B7800930B464849F5
:100BCC00504804F071F90121012004F0FCF84D4863
:100BDC0004F055F90121002004F0F5F80F2004F081
:100BEC007BF8494B00221A60484B00221A60464B96
:100BFC001B680133444A1360434B1B68012B40F3C1
:100C0C009581414B1B68023B404A13602A4B1A6882
:100C1C003E4B1B68D1B23E4AD154274B1B680B2B61
:100C2C0000F2478101A252F823F000BF690C0008C2
:100C3C00710C0008790C0008810C0008890C000864
:100C4C00910C0008990C0008A10C0008A90C0008D4
:100C5C00B10C0008BF0E0008490D00082D4804F027
:100C6C000EF926E12C4804F00AF922E12B4804F095
:100C7C0006F91EE12A4804F002F91AE1294804F0A9
:100C8C00FEF816E1284804F0FAF812E1274804F0BF
:100C9C00F6F80EE1264804F0F2F80AE1254804F0D3
:100CAC00EEF806E1244804F0EAF802E1B80200206C
:100CBC0004000020F058000840020020140000201E
:100CCC00F858000804590008D4020020DC02002067
:100CDC0010000020600300209C580008E002002057
:100CEC00B4580008F40200205A0300205B030020D3
:100CFC0018000020080300205E0300205D03002084
:100D0C005C0300201C030020380300203403002067
:100D1C004C030020C8580008CC580008D0580008D4
:100D2C00D4580008D8580008DC580008E0580008CF
:100D3C00E4580008E8580008EC5800087E4B029371
:100D4C007E4B01937E4B00937E4B7F4A7F498048BC
:100D5C00FFF7D2FA7D4B1B78002B05D07B4B1B7811
:100D6C001F2B01D8012300E000233B763B7E03F0D0
:100D7C0001033B76744B1B78002B05D0724B1B7810
:100D8C000C2B01D8012300E00023FB75FB7D03F045
:100D9C000103FB756B4B1B68B3F5FA6F07DD694BF1
:100DAC001B6840F6B832934201DC012300E00023BB
:100DBC00BB75BB7D03F00103BB75614B1B78172B17
:100DCC0094BF012300237B755C4B1B783B2B94BF9A
:100DDC00012300233B75584B1B783B2B94BF0123FD
:100DEC000023FB743B7E002B10D0FB7D002B0DD021
:100DFC00BB7D002B0AD07B7D002B07D03B7D002BCD
:100E0C0004D0FB7C002B01D0012300E00023BB7439
:100E1C00BB7C03F00103BB744A4B1B68A3F5FA635C
:100E2C00484A1360BB7C002B1CD04A4B00221A6032
:100E3C00494B01221A6003F0AFFF0121002003F09F
:100E4C00C2FF464804F01BF8454B00221A60454B84
:100E5C0001221A600C2003F03FFF40F2DC5001F03D
:100E6C0009FA25E03B4B05221A603B4B01221A6024
:100E7C0003F092FF0121002003F0A5FF3A4803F094
:100E8C00FEFF0121012003F09EFF384803F0F7FF1D
:100E9C00334B00221A60364B01221A60314B01226F
:100EAC001A600C2003F018FF40F2DC5001F0E2F95C
:100EBC0000BF304B1B68032B03D10621002003F02D
:100ECC0082FF2C4B1B68052B03D10B21002003F058
:100EDC007AFF284B1B68092B03D10121012003F059
:100EEC0072FF244B1B680B2B03D10621012003F04E
:100EFC006AFF204B1B680D2B03D10B21012003F043
:100F0C0062FF1C4B1B680F2B10D10C2003F0E4FE6E
:100F1C000CE003F041FF0121002003F054FF1648C0
:100F2C0003F0ADFF05E000BFFFF78DBA00BFFFF780
:100F3C008ABAFFF788BA00BF5C0300205D0300206B
:100F4C005E030020180000205B0300205A030020E1
:100F5C004C030020B802002004000020F0580008C8
:100F6C004002002014000020F85800080459000822
:100F7C00D4020020380300201859000880B590B026
:100F8C0000AF07F1180328220021184603F0ACFF2C
:100F9C003B1D00221A605A609A60DA601A610123C4
:100FAC00BB614FF48033FB6100233B620123BB62C6
:100FBC0002237B634FF48033BB634FF4C013FB639A
:100FCC0007F11803184602F05FFE0346002B01D010
:100FDC0000F062FF0F237B600223BB600023FB60E9
:100FEC004FF480633B6100237B613B1D022118465B
:100FFC0003F0CCF80346002B01D000F04DFF00BFEE
:10100C004037BD4680BD000080B500AF124B134A7F
:10101C001A60114B124A5A600F4B00229A600E4B09
:10102C000022DA600C4B4FF480421A610A4B00220A
:10103C005A61094B00229A61074B0022DA61064B78
:10104C0000221A62044801F045FC0346002B01D033
:10105C0000F022FF00BF80BD94000020005400402F
:10106C00A086010080B586B000AF07F1080300220E
:10107C001A605A609A60DA603B4600221A605A6025
:10108C001D4B4FF080421A601B4B3F225A601A4B8B
:10109C0000229A60184B4FF6FF72DA60164B002252
:1010AC001A61154B80229A61134803F0E9F9034643
:1010BC00002B01D000F0F0FE4FF48053BB6007F121
:1010CC00080319460C4803F0B3FB0346002B01D070
:1010DC0000F0E2FE00233B6000237B603B46194698
:1010EC00054803F089FD0346002B01D000F0D4FE27
:1010FC0000BF1837BD4680BDE800002080B586B023
:10110C0000AF07F1080300221A605A609A60DA6097
:10111C003B4600221A605A601D4B1E4A1A601C4B3B
:10112C003F225A601A4B00229A60194B4FF47A7284
:10113C00DA60174B00221A61154B80229A61144811
:10114C0003F09EF90346002B01D000F0A5FE4FF4EE
:10115C008053BB6007F1080319460D4803F068FB88
:10116C000346002B01D000F097FE00233B600023C8
:10117C007B603B461946064803F03EFD0346002BB8
:10118C0001D000F089FE00BF1837BD4680BD00BFFE
:10119C00300100200004004080B586B000AF07F19C
:1011AC00080300221A605A609A60DA603B460022FB
:1011BC001A605A601D4B1E4A1A601C4B4FF2186283
:1011CC005A601A4B00229A60184B4FF47A72DA600C
:1011DC00164B00221A61154B80229A61134803F0BA
:1011EC004FF90346002B01D000F056FE4FF480530C
:1011FC00BB6007F1080319460C4803F019FB0346C2
:10120C00002B01D000F048FE00233B6000237B60E4
:10121C003B461946054803F0EFFC0346002B01D072
:10122C0000F03AFE00BF1837BD4680BD78010020A3
:10123C000008004080B588B000AF07F11003002211
:10124C001A605A609A60DA60534B9B69524A43F0B9
:10125C0010039361504B9B6903F01003FB60FB6818
:10126C004D4B9B694C4A43F0200393614A4B9B695D
:10127C0003F02003BB60BB68474B9B69464A43F0B5
:10128C0004039361444B9B6903F004037B607B680C
:10129C00414B9B69404A43F0080393613E4B9B6969
:1012AC0003F008033B603B6800224FF400513B48BD
:1012BC0001F0DFFA002240F20171394801F0D9FA4D
:1012CC0000224FF48051374801F0D3FA4FF4005309
:1012DC003B6101237B610123BB610223FB6107F1AD
:1012EC00100319462D4801F029F93E233B612E4B82
:1012FC007B610123BB6107F110031946294801F0FA
:10130C001DF940F201733B6101237B610223BB6138
:10131C000223FB6107F110031946214801F00EF975
:10132C004FF480533B6101237B610023BB6102239B
:10133C00FB6107F1100319461A4801F0FFF800226F
:10134C000421072001F0B5F8072001F0CEF80022A7
:10135C000B21082001F0ADF8082001F0C6F800229E
:10136C000B21092001F0A5F8092001F0BEF800229C
:10137C000B210A2001F09DF80A2001F0B6F800229A
:10138C000B21172001F095F8172001F0AEF800BFE3
:10139C002037BD4680BD00BF001002400010014048
:1013AC00000C0140000801400000311080B586B0EF
:1013BC0000AF0346FB80FB88042B40F0D98000F083
:1013CC004FFF0346B74A1360B64B1A68B64B1B68FF
:1013DC00D21AB64B1B689A4240F2CA800421B44818
:1013EC0001F030FA0346002B40F0BE8000224FF48F
:1013FC008071B04801F03DFA01224FF40071AD4804
:10140C0001F037FA01224FF48061AA4801F031FA59
:10141C0001220121A74801F02CFA0421A44801F073
:10142C0011FA0346002B0BD1A34B1B680133A24AC4
:10143C001360A24B01221A60A14803F071F87CE002
:10144C0001224FF480719B4801F013FA00224FF4F3
:10145C000071984801F00DFA01224FF48061954813
:10146C0001F007FA01220121924801F002FA04214D
:10147C008F4801F0E7F90346002B0BD1914B1B6809
:10148C000133904A13608D4B02221A608C4803F092
:10149C0047F852E001224FF48071864801F0E9F9D7
:1014AC0001224FF40071834801F0E3F900224FF45C
:1014BC008061804801F0DDF9012201217D4801F0B5
:1014CC00D8F904217A4801F0BDF90346002B0BD161
:1014DC007D4B1B6801337C4A1360784B03221A60E6
:1014EC00774803F01DF828E001224FF48071714811
:1014FC0001F0BFF901224FF400716E4801F0B9F907
:10150C0001224FF480616B4801F0B3F900220121F4
:10151C00684801F0AEF90421654801F093F90346DF
:10152C00002B0AD1694B1B680133684A1360634B6B
:10153C000A221A60624802F0F3FF00224FF4807115
:10154C005C4801F096F900224FF40071594801F003
:10155C0090F900224FF48061564801F08AF900227C
:10156C000121544801F085F94E4B1B684E4A13601B
:10157C00FB88082B40F0F68000F072FE0346494AC7
:10158C001360484B1A68484B1B68D21A474B1B68B0
:10159C009A4240F2E7800821454801F053F903468E
:1015AC00002B40F0DB8000224FF48071414801F0A9
:1015BC0060F901224FF400713E4801F05AF9012202
:1015CC004FF480613B4801F054F901220121394864
:1015DC0001F04FF90821364801F034F90346002B8D
:1015EC000BD13B4B1B680133394A1360334B04223C
:1015FC001A60334802F094FF99E001224FF4807195
:10160C002C4801F036F900224FF40071294801F002
:10161C0030F901224FF48061264801F02AF90122A9
:10162C000121244801F025F90821214801F00AF98B
:10163C000346002B0BD1274B1B680133254A136043
:10164C001E4B05221A601E4802F06AFF6FE0012251
:10165C004FF48071174801F00CF901224FF400711E
:10166C00144801F006F900224FF48061114801F092
:10167C0000F9012201210F4801F0FBF808210C4868
:10168C0001F0E0F80346002B28D1134B1B68013303
:10169C00114A1360094B06221A60094802F040FFF8
:1016AC0045E000BF3C020020380200200000002072
:1016BC0000080140000C01404402002040020020C0
:1016CC0030010020480200204C020020740200204F
:1016DC0050020020540200205802002001224FF436
:1016EC008071B64801F0C5F801224FF40071B3487F
:1016FC0001F0BFF801224FF48061B04801F0B9F855
:10170C0000220121AD4801F0B4F80821AC4801F0E9
:10171C0099F80346002B0AD1AA4B1B680133A94A3E
:10172C001360A94B0A221A60A84802F0F9FE0022A5
:10173C004FF48071A14801F09CF800224FF4007125
:10174C009E4801F096F800224FF480619B4801F00E
:10175C0090F800220121994801F08BF89C4B1B68F2
:10176C009C4A1360FB88102B40F0D98000F078FD68
:10177C000346974A1360964B1A68964B1B68D21A0D
:10178C00954B1B689A4240F2CA8010218C4801F09C
:10179C0059F80346002B40F0BE8000224FF48071B4
:1017AC00864801F066F801224FF40071834801F07D
:1017BC0060F801224FF48061804801F05AF8012250
:1017CC0001217E4801F055F810217D4801F03AF8CE
:1017DC000346002B0BD1814B1B6801337F4A1360EE
:1017EC00794B07221A60794802F09AFE7CE00122BC
:1017FC004FF48071714801F03CF800224FF40071F5
:10180C006E4801F036F801224FF480616B4801F00C
:10181C0030F801220121694801F02BF810216848A9
:10182C0001F010F80346002B0BD16D4B1B680133F4
:10183C006B4A1360644B08221A60644802F070FE15
:10184C0052E001224FF480715C4801F012F8012241
:10185C004FF40071594801F00CF800224FF48061EC
:10186C00564801F006F801220121544801F001F814
:10187C001021534800F0E6FF0346002B0BD1594BC7
:10188C001B680133574A13604F4B09221A604F48AB
:10189C0002F046FE28E001224FF48071474800F028
:1018AC00E8FF01224FF40071444800F0E2FF0122EE
:1018BC004FF48061414800F0DCFF002201213F48D9
:1018CC0000F0D7FF10213E4800F0BCFF0346002B70
:1018DC000AD1454B1B680133434A13603A4B0A2229
:1018EC001A603A4802F01CFE00224FF48071334813
:1018FC0000F0BFFF00224FF40071304800F0B9FF38
:10190C0000224FF480612D4800F0B3FF002201212A
:10191C002A4800F0AEFF2E4B1B682E4A1360FB8842
:10192C00202B40F01E8100F09BFC0346284A1360DC
:10193C00274B1A68274B1B68D21A274B1B689A42F5
:10194C0040F20F8120211E4800F07CFF0346002B43
:10195C0040F0038100224FF48071184800F089FF99
:10196C0001224FF40071154800F083FF01224FF45F
:10197C008061124800F07DFF012201210F4800F028
:10198C0078FF20210E4800F05DFF0346002B50D15C
:10199C00164B1B680133154A1360154B1B68012B42
:1019AC0002D0032B28D031E0124B1B68012B33D112
:1019BC000F4B1B6801330E4A13602DE0000C0140E5
:1019CC000008014078020020400200203001002075
:1019DC003C02002038020020000000205C020020A5
:1019EC0060020020640200207C0200206C020020B7
:1019FC00B8020020D00200207B4B1B68012B0DD1BC
:101A0C007A4B1B680133794A136007E0774B1B68EC
:101A1C000133764A136002E000BF00E000BF744B54
:101A2C0001221A60734B0A221A60734802F078FD87
:101A3C007CE001224FF48071704800F01AFF002204
:101A4C004FF400716D4800F014FF01224FF48061D7
:101A5C006A4800F00EFF01220121684800F009FFDE
:101A6C002021674800F0EEFE0346002B0BD1654B9E
:101A7C001B680133634A13605E4B00221A605E4898
:101A8C0002F04EFD52E001224FF480715B4800F0F1
:101A9C00F0FE01224FF40071584800F0EAFE0022DB
:101AAC004FF48061554800F0E4FE012201215348B7
:101ABC0000F0DFFE2021524800F0C4FE0346002B4C
:101ACC000BD1514B1B6801334F4A1360494B0B220E
:101ADC001A60494802F024FD28E001224FF480717D
:101AEC00464800F0C6FE01224FF40071434800F056
:101AFC00C0FE01224FF48061404800F0BAFE002283
:101B0C0001213E4800F0B5FE20213D4800F09AFE30
:101B1C000346002B0AD13D4B1B6801333B4A136033
:101B2C00344B0A221A60344802F0FAFC00224FF4BB
:101B3C008071324800F09DFE00224FF400712F4856
:101B4C0000F097FE00224FF480612C4800F091FECB
:101B5C0000220121294800F08CFE2D4B1B682D4AD8
:101B6C001360FB88022B3AD12B4B1B685B6A2B4A08
:101B7C0013602A4B1A682A4B1B68D31A294A136024
:101B8C00264B1B68264A1360264B1A68264B1B688B
:101B9C00D1B2264AD154244B1B680133224A13601C
:101BAC00214B1B68542B1ADD1B4802F00BFD072040
:101BBC0000F0A9FC07F1080300221A605A609A6031
:101BCC00DA6000233B610123FB600223BB6002232C
:101BDC007B6107F108031946094800F0AFFC00BF10
:101BEC001837BD4680BD00BF14000020B80200208D
:101BFC00D40200204002002030010020000C0140E3
:101C0C0000080140680200207002002080020020C1
:101C1C003C02002038020020E80000202C020020AA
:101C2C00280200203002002034020020C0010020D5
:101C3C0080B584B000AF284802F072FC072000F099
:101C4C0062FC264B00221A603B4600221A605A6046
:101C5C009A60DA600123BB6000237B6002233B6047
:101C6C000223FB603B4619461D4800F067FC01202F
:101C7C0000F000FB0023BB6001237B6002233B6070
:101C8C000223FB603B461946154800F057FC002226
:101C9C000221134800F0EDFD142000F0EBFA0F4B7D
:101CAC001B68002B06D10C4B1B6800225A620D4B93
:101CBC0000221A6002233B600B4B7B600123BB604C
:101CCC003B461946064800F039FC072000F00DFC95
:101CDC0000BF1037BD4680BDE80000203402002054
:101CEC0000080140280200200000311080B584B0AB
:101CFC0000AF78603960284802F064FC072000F0DF
:101D0C0002FC0023FB600423BB603DE0FB68002B5E
:101D1C0000DA0733DB1019460A463B6813441A787D
:101D2C003B680B445200D2B21A70BB687A681344F9
:101D3C001A78BB68013379680B441B789A420DD929
:101D4C00FB68002B00DA0733DB1019460A463B68A8
:101D5C001A443B680B4412781A700FE0FB68002B96
:101D6C0000DA0733DB1019460A463B6813441A782D
:101D7C003B680B4442F00102D2B21A70FB6801338B
:101D8C00FB60BB680233BB60BB68522BBEDD00BF7F
:101D9C0000BF1037BD4680BDE8000020B0B584B050
:101DAC0002AF78607B681B68B3F1804F08D12E4B73
:101DBC00D3E90023541C43F100052B4BC3E9004528
:101DCC007B681B68294A934205D1294B01221A6072
:101DDC00284802F0F7FB7B681B68274A93423ED1E8
:101DEC00264B1968264B83FB0132CB17D21A1346AC
:101DFC005B0013445B00CA1A022A30D1FEF72CFA9E
:101E0C00204B9B781A461F4B5B7819461D4B1B7851
:101E1C0000930B461C491D4803F046F8194B1B79DF
:101E2C001A46184B5B791946164B9B7900930B4657
:101E3C001749184803F038F802F0AEFF0C2002F0F6
:101E4C004BFF0121002002F0BEFF124803F017F8EF
:101E5C000121012002F0B7FF0C4803F010F800BF7D
:101E6C000837BD46B0BD00BF88020020000400400A
:101E7C00040000203001002000080040B8020020BF
:101E8C00ABAAAA2A60030020B4580008F402002070
:101E9C009C580008E002002080B400AF72B600BF6E
:101EAC00FEE7000080B483B000AF0E4B9B690D4A77
:101EBC0043F0010393610B4B9B6903F001037B60BF
:101ECC007B68084BDB69074A43F08053D361054BB1
:101EDC00DB6903F080533B603B6800BF0C37BD46A9
:101EEC0080BC70470010024080B588B000AF7860AD
:101EFC0007F1100300221A605A609A60DA607B685E
:101F0C001B68154A934223D1144B9B69134A43F027
:101F1C0008039361114B9B6903F00803FB60FB689A
:101F2C00C0233B6112237B610323FB6107F1100388
:101F3C0019460B4800F002FB084BDB69074A43F4D7
:101F4C000013D361054BDB6903F40013BB60BB6862
:101F5C0000BF2037BD4680BD005400400010024039
:101F6C00000C014080B586B000AF78607B681B68C0
:101F7C00B3F1804F14D1264BDB69254A43F00103A2
:101F8C00D361234BDB6903F001037B617B69002286
:101F9C000A211C2000F08DFA1C2000F0A6FA32E079
:101FAC007B681B681B4A934214D1194BDB69184A96
:101FBC0043F00203D361164BDB6903F002033B6170
:101FCC003B6900220C211D2000F073FA1D2000F04B
:101FDC008CFA18E07B681B680F4A934213D10C4BA8
:101FEC00DB690B4A43F00403D361094BDB6903F053
:101FFC000403FB60FB68002200211E2000F059FA4C
:10200C001E2000F072FA00BF1837BD4680BD00BF1D
:10201C0000100240000400400008004080B400AFF3
:10202C00FEE780B400AFFEE780B400AFFEE780B4FB
:10203C0000AFFEE780B400AFFEE780B400AF00BF96
:10204C00BD4680BC704780B400AF00BFBD4680BCAD
:10205C00704780B400AF00BFBD4680BC704780B5F0
:10206C0000AF00F0EBF800BF80BD80B500AF0220E0
:10207C0000F018FC00BF80BD80B500AF042000F05C
:10208C0011FC00BF80BD80B500AF082000F00AFC39
:10209C0000BF80BD80B500AF102000F003FC00BF76
:1020AC0080BD80B500AF202000F0FCFB00BF80BDE0
:1020BC0080B500AF024802F0B3FA00BF80BD00BF8C
:1020CC00E800002080B500AF024802F0A9FA00BF7A
:1020DC0080BD00BF3001002080B500AF024802F087
:1020EC009FFA00BF80BD00BF7801002080B586B08C
:1020FC0000AF7860144A154BD31A7B617B693B6146
:10210C00134B1B68002B02D1114B124A1A60104B57
:10211C001A687B6813443A699A4207D202F0ECFEC3
:10212C0003460C221A604FF0FF3309E0084B1B6882
:10213C00FB60074B1A687B681344054A1360FB6805
:10214C0018461837BD4680BD005000200004000022
:10215C0068030020B804002080B400AF00BFBD4667
:10216C0080BC7047FFF7F8FF0B480C490C4A002362
:10217C0002E0D458C4500433C4188C42F9D3094A31
:10218C00094C002301E013600432A242FBD302F09D
:10219C00B9FEFEF727F970470000002078000020F8
:1021AC009059000878000020B8040020FEE70000D9
:1021BC0080B500AF084B1B68074A43F0100313604F
:1021CC00032000F06BF90F2000F008F8FFF76AFE0F
:1021DC000023184680BD00BF0020024080B582B0AD
:1021EC0000AF7860124B1A68124B1B7819464FF4EB
:1021FC007A73B3FBF1F3B2FBF3F3184600F091F9E9
:10220C000346002B01D001230EE07B680F2B0AD86C
:10221C00002279684FF0FF3000F04BF9064A7B68DA
:10222C001360002300E0012318460837BD4680BD2B
:10223C001C000020240000202000002080B400AFEF
:10224C00054B1B781A46054B1B681344034A136055
:10225C0000BFBD4680BC7047240000206C030020EA
:10226C0080B400AF024B1B681846BD4680BC70475B
:10227C006C03002080B584B000AF7860FFF7F0FFEE
:10228C00B8607B68FB60FB68B3F1FF3F05D00A4B7D
:10229C001B781A46FB681344FB6000BFFFF7E0FF96
:1022AC000246BB68D31AFA689A42F7D800BF00BF3F
:1022BC001037BD4680BD00BF2400002080B485B01F
:1022CC0000AF78607B6803F00703FB600C4BDB68A6
:1022DC00BB60BA684FF6FF031340BB60FB681A0281
:1022EC00BB68134343F0BF6343F40033BB60044A41
:1022FC00BB68D36000BF1437BD4680BC704700BFBD
:10230C0000ED00E080B400AF044BDB681B0A03F067
:10231C0007031846BD4680BC704700BF00ED00E0C7
:10232C0080B483B000AF0346FB7197F90730002BE4
:10233C000BDBFB7903F01F02064997F907305B09A9
:10234C00012000FA02F241F8232000BF0C37BD46F1
:10235C0080BC704700E100E080B483B000AF03465E
:10236C00FB7197F90730002B12DBFB7903F01F028E
:10237C000A4997F907305B09012000FA02F2203371
:10238C0041F82320BFF34F8F00BFBFF36F8F00BF07
:10239C0000BF0C37BD4680BC704700BF00E100E0B9
:1023AC0080B483B000AF03463960FB7197F90730F6
:1023BC00002B0ADB3B68DAB20C4997F907301201A3
:1023CC00D2B20B4483F800230AE03B68DAB2084926
:1023DC00FB7903F00F03043B1201D2B20B441A76C3
:1023EC0000BF0C37BD4680BC704700BF00E100E069
:1023FC0000ED00E080B489B000AFF860B9607A609D
:10240C00FB6803F00703FB61FB69C3F10703042BB3
:10241C0028BF0423BB61FB690433062B02D9FB697B
:10242C00033B00E000237B614FF0FF32BB6902FAF3
:10243C0003F3DA43BB681A407B699A404FF0FF31D3
:10244C007B6901FA03F3D9437B680B4013431846AD
:10245C002437BD4680BC704780B582B000AF786031
:10246C007B68013BB3F1807F01D301230FE00A4A63
:10247C007B68013B53600F214FF0FF30FFF790FF5B
:10248C00054B00229A60044B07221A600023184661
:10249C000837BD4680BD00BF10E000E080B582B0BB
:1024AC0000AF78607868FFF709FF00BF0837BD46BA
:1024BC0080BD80B586B000AF0346B9607A60FB730F
:1024CC0000237B61FFF71EFF78617A68B968786931
:1024DC00FFF790FF024697F90F3011461846FFF7A9
:1024EC005FFF00BF1837BD4680BD80B582B000AF1E
:1024FC000346FB7197F907301846FFF711FF00BF31
:10250C000837BD4680BD80B582B000AF0346FB7175
:10251C0097F907301846FFF71FFF00BF0837BD4675
:10252C0080BD80B582B000AF78607868FFF794FF0B
:10253C00034618460837BD4680BD000080B48BB0FA
:10254C0000AF7860396000237B6200233B6269E155
:10255C0001227B6A02FA03F3FB613B681B68FA6990
:10256C001340BB61BA69FB699A4240F058813B68E1
:10257C005B689A4A93425ED0984A934275D8984ABF
:10258C00934258D0964A93426FD8964A934252D06F
:10259C00944A934269D8944A93424CD0924A9342BB
:1025AC0063D8924A934246D0904A93425DD8122BFC
:1025BC002AD8122B59D801A252F823F0432600082E
:1025CC001D2600082F260008712600087726000813
:1025DC00772600087726000877260008772600085B
:1025EC00772600087726000877260008772600084B
:1025FC00772600087726000877260008772600083B
:10260C002526000839260008794A934213D02CE07D
:10261C003B68DB683B6229E03B68DB6804333B6268
:10262C0024E03B68DB6808333B621FE03B68DB68F7
:10263C000C333B621AE03B689B68002B02D10423ED
:10264C003B6213E03B689B68012B05D108233B627E
:10265C007B68FA691A6109E008233B627B68FA69B6
:10266C005A6103E000233B6200E000BFBB69FF2B13
:10267C0001D87B6801E07B6804337B61BB69FF2B6D
:10268C0002D87B6A9B0002E07B6A083B9B003B61A3
:10269C007B691A680F213B6901FA03F3DB431A408B
:1026AC00396A3B6901FA03F31A437B691A603B6888
:1026BC005B6803F08053002B00F0B1804D4B9B699D
:1026CC004C4A43F0010393614A4B9B6903F00103AD
:1026DC00BB60BB68484A7B6A9B08023352F82330C4
:1026EC00FB607B6A03F003039B000F2202FA03F3E7
:1026FC00DB43FA681340FB607B68404A934213D07B
:10270C007B683F4A93420DD07B683E4A934207D088
:10271C007B683D4A934201D1032306E0042304E085
:10272C00022302E0012300E000237A6A02F0030294
:10273C0092009340FA681343FB602F497B6A9B0815
:10274C000233FA6841F823203B685B6803F480137A
:10275C00002B06D02D4B9A682C49BB6913438B6018
:10276C0006E02A4B9A68BB69DB43284913408B600F
:10277C003B685B6803F40013002B06D0234BDA682C
:10278C002249BB691343CB6006E0204BDA68BB6976
:10279C00DB431E491340CB603B685B6803F400339A
:1027AC00002B06D0194B5A681849BB6913434B6070
:1027BC0006E0164B5A68BB69DB43144913404B6067
:1027CC003B685B6803F48033002B21D00F4B1A68F5
:1027DC000E49BB6913430B6021E000BF00003210AF
:1027EC000000311000002210000021100000121017
:1027FC0000001110001002400000014000080140D0
:10280C00000C014000100140001401400004014084
:10281C000B4B1A68BB69DB43094913400B607B6A9D
:10282C0001337B623B681A687B6A22FA03F3002B44
:10283C007FF48EAE00BF00BF2C37BD4680BC704706
:10284C000004014080B485B000AF78600B467B80FB
:10285C007B689A687B881340002B02D00123FB73A2
:10286C0001E00023FB73FB7B18461437BD4680BC8C
:10287C00704780B483B000AF78600B467B80134602
:10288C007B707B78002B03D07A887B681A6103E01D
:10289C007B881A047B681A6100BF0C37BD4680BC6C
:1028AC007047000080B582B000AF0346FB80084B38
:1028BC005A69FB881340002B06D0054AFB885361EC
:1028CC00FB881846FEF772FD00BF0837BD4680BD79
:1028DC000004014080B584B000AF78607B68002BA9
:1028EC0001D101232BE17B6893F83D30DBB2002B47
:1028FC0006D17B68002283F83C207868FFF7F4FA55
:10290C007B68242283F83D207B681B681A687B68EF
:10291C001B6822F001021A607B681B681A687B68CE
:10292C001B6842F400421A607B681B681A687B685B
:10293C001B6822F400421A6001F070FDF8607B689D
:10294C005B68814A934207D8FB68804A934294BFE4
:10295C0001230023DBB206E0FB687D4A934294BF5F
:10296C0001230023DBB2002B01D00123E7E0FB683D
:10297C00784AA2FB03239B0CBB607B681B685B68DB
:10298C0023F03F017B681B68BA680A435A607B6876
:10299C001B681B6A23F03F017B685B686A4A9342A1
:1029AC0002D8BB68013309E0BB684FF4967202FB96
:1029BC0003F3694AA2FB03239B0901337A6812686B
:1029CC000B4313627B681B68DB6923F44F4222F0D4
:1029DC00FF027B685B685C498B4219D8FB68591E07
:1029EC007B685B685B00B1FBF3F3591C40F6FC732E
:1029FC000B40002B0AD0FB68591E7B685B685B00A0
:102A0C00B1FBF3F30133C3F30B0351E004234FE0A9
:102A1C007B689B68002B11D1FB68581E7B6859683A
:102A2C000B465B000B44B0FBF3F30133C3F30B0316
:102A3C00002B0CBF01230023DBB212E0FB68581EF5
:102A4C007B6859680B469B000B4499000B44B0FB08
:102A5C00F3F30133C3F30B03002B0CBF012300234F
:102A6C00DBB2002B01D0012322E07B689B68002B9A
:102A7C000ED1FB68581E7B6859680B465B000B44F3
:102A8C00B0FBF3F30133C3F30B0343F400430FE048
:102A9C00FB68581E7B6859680B469B000B449900D9
:102AAC000B44B0FBF3F30133C3F30B0343F4404388
:102ABC00796809681343CB617B681B681B6823F03A
:102ACC00C0017B68DA697B681B6A1A437B681B68E8
:102ADC000A431A607B681B689B6823F4034323F04A
:102AEC00FF037A6811697A68D26811437A681268B0
:102AFC000B4393607B681B68DB6823F0FF017B68EA
:102B0C005A697B689B691A437B681B680A43DA60C5
:102B1C007B681B681A687B681B6842F001021A60AC
:102B2C007B6800221A647B68202283F83D207B6836
:102B3C0000221A637B68002283F83E20002318468B
:102B4C001037BD4680BD00BFA08601007F841E00EB
:102B5C00FF083D0083DE1B43D34D621080B588B067
:102B6C0002AFF8607A601A460B467B8113463B81B4
:102B7C00FFF776FB7861FB6893F83D30DBB2202BD6
:102B8C0040F0E0807B690093192301227049F868BA
:102B9C0000F044FE0346002B01D00223D3E0FB6877
:102BAC0093F83C30012B01D10223CCE0FB680122CD
:102BBC0083F83C20FB681B681B6803F00103012BA6
:102BCC0007D0FB681B681A68FB681B6842F001029F
:102BDC001A60FB681B681A68FB681B6822F40062A9
:102BEC001A60FB68212283F83D20FB68102283F8D1
:102BFC003E20FB6800221A64FB687A685A62FB6804
:102C0C003A895A85FB685B8D9AB2FB681A85FB681A
:102C1C00504ADA6279897B693A6AF86800F0FEFBFF
:102C2C000346002B01D001238DE000233B61FB68A0
:102C3C001B685B693B61FB681B689B693B613B697B
:102C4C0066E07A69396AF86800F002FF0346002BE7
:102C5C000DD0FB681B6C042B07D1FB681B681A6832
:102C6C00FB681B6842F400721A6001236BE0FB687E
:102C7C005B6A1A78FB681B681A61FB685B6A5A1CF2
:102C8C00FB685A62FB685B8D9BB2013B9AB2FB6896
:102C9C005A85FB681B8D013B9AB2FB681A85FB6851
:102CAC001B685B6903F00403042B1BD1FB681B8DB1
:102CBC00002B17D0FB685B6A1A78FB681B681A61DB
:102CCC00FB685B6A5A1CFB685A62FB685B8D9BB2A3
:102CDC00013B9AB2FB685A85FB681B8D013B9AB28B
:102CEC00FB681A857A69396AF86800F0F9FE0346C0
:102CFC00002B0DD0FB681B6C042B07D1FB681B68E9
:102D0C001A68FB681B6842F400721A6001231AE00F
:102D1C00FB681B8D002B94D1FB681B681A68FB6841
:102D2C001B6842F400721A60FB68202283F83D2075
:102D3C00FB68002283F83E20FB68002283F83C20CD
:102D4C00002300E0022318461837BD4680BD00BFA3
:102D5C00020010000000FFFF80B588B002AFF860E1
:102D6C00084611461A4603467B810B463B811346A7
:102D7C00FB80FFF775FA7861FB6893F83D30DBB2A6
:102D8C00202B40F0D9807B690093192301226D49D7
:102D9C00F86800F043FD0346002B01D00223CCE081
:102DAC00FB6893F83C30012B01D10223C5E0FB6892
:102DBC00012283F83C20FB681B681B6803F00103AD
:102DCC00012B07D0FB681B681A68FB681B6842F074
:102DDC0001021A60FB681B681A68FB681B6822F406
:102DEC0000621A60FB68212283F83D20FB684022B8
:102DFC0083F83E20FB6800221A64FB683A6A5A6228
:102E0C00FB68BA8C5A85FB685B8D9AB2FB681A8595
:102E1C00FB684D4ADA62F8883A8979897B690193B3
:102E2C00BB6A00930346F86800F07AFB0346002B5C
:102E3C0052D0012381E07A69B96AF86800F008FE83
:102E4C000346002B0DD0FB681B6C042B07D1FB68D1
:102E5C001B681A68FB681B6842F400721A60012335
:102E6C006BE0FB685B6A1A78FB681B681A61FB688D
:102E7C005B6A5A1CFB685A62FB681B8D013B9AB259
:102E8C00FB681A85FB685B8D9BB2013B9AB2FB68B1
:102E9C005A85FB681B685B6903F00403042B1BD188
:102EAC00FB681B8D002B17D0FB685B6A1A78FB68DC
:102EBC001B681A61FB685B6A5A1CFB685A62FB68E8
:102ECC001B8D013B9AB2FB681A85FB685B8D9BB22C
:102EDC00013B9AB2FB685A85FB681B8D002BAAD16B
:102EEC007A69B96AF86800F0FBFD0346002B0DD037
:102EFC00FB681B6C042B07D1FB681B681A68FB680A
:102F0C001B6842F400721A60012316E0FB681B6810
:102F1C001A68FB681B6842F400721A60FB68202276
:102F2C0083F83D20FB68002283F83E20FB680022DA
:102F3C0083F83C20002300E0022318461837BD46D6
:102F4C0080BD00BF020010000000FFFF80B58CB0F8
:102F5C0002AFF860084611461A4603467B810B46C1
:102F6C003B811346FB8000233B62FFF779F97862C3
:102F7C00FB6893F83D30DBB2202B40F044827B6A37
:102F8C000093192301228249F86800F047FC03469C
:102F9C00002B01D0022337E2FB6893F83C30012B65
:102FAC0001D1022330E2FB68012283F83C20FB684C
:102FBC001B681B6803F00103012B07D0FB681B681F
:102FCC001A68FB681B6842F001021A60FB681B68F8
:102FDC001A68FB681B6822F400621A60FB682222E4
:102FEC0083F83D20FB68402283F83E20FB680022DA
:102FFC001A64FB683A6B5A62FB68BA8E5A85FB6896
:10300C005B8D9AB2FB681A85FB68624ADA62F888B3
:10301C003A8979897B6A0193BB6B00930346F86804
:10302C0000F014FB0346002B01D00123ECE1FB68FC
:10303C001B8D002B13D10023FB61FB681B685B69A4
:10304C00FB61FB681B689B69FB61FB69FB681B6888
:10305C001A68FB681B6842F400721A60C0E1FB68D6
:10306C001B8D012B1ED1FB681B681A68FB681B6843
:10307C0022F480621A6072B600BF0023BB61FB6849
:10308C001B685B69BB61FB681B689B69BB61BB69A7
:10309C00FB681B681A68FB681B6842F400721A60B4
:1030AC0062B635E0FB681B8D022B1ED1FB681B68DA
:1030BC001A68FB681B6842F400621A6072B600BFA3
:1030CC0000237B61FB681B685B697B61FB681B6889
:1030DC009B697B617B69FB681B681A68FB681B68D2
:1030EC0022F480621A6062B612E0FB681B681A68F0
:1030FC00FB681B6842F480621A6000233B61FB682A
:10310C001B685B693B61FB681B689B693B613B69A6
:10311C0066E1FB681B8D032B00F21F81FB681B8D86
:10312C00012B23D17A6AB96BF86800F021FD0346B4
:10313C00002B01D0012367E1FB681B681A69FB684F
:10314C005B6AD2B21A70FB685B6A5A1CFB685A62E3
:10315C00FB681B8D013B9AB2FB681A85FB685B8D83
:10316C009BB2013B9AB2FB685A8539E1FB681B8D17
:10317C00022B52D17B6A0093BB6B00220649F86884
:10318C0000F04CFB0346002B08D001233CE100BFB0
:10319C00020010000000FFFF0400010072B600BF27
:1031AC00FB681B681A68FB681B6842F400721A60A3
:1031BC00FB681B681A69FB685B6AD2B21A70FB6801
:1031CC005B6A5A1CFB685A62FB681B8D013B9AB206
:1031DC00FB681A85FB685B8D9BB2013B9AB2FB685E
:1031EC005A8562B600BFFB681B681A69FB685B6A8C
:1031FC00D2B21A70FB685B6A5A1CFB685A62FB6895
:10320C001B8D013B9AB2FB681A85FB685B8D9BB2E8
:10321C00013B9AB2FB685A85E2E07B6A0093BB6B78
:10322C0000227B49F86800F0F9FA0346002B01D024
:10323C000123E9E0FB681B681A68FB681B6822F431
:10324C0080621A6072B600BFFB681B681A69FB6863
:10325C005B6AD2B21A70FB685B6A5A1CFB685A62D2
:10326C00FB681B8D013B9AB2FB681A85FB685B8D72
:10327C009BB2013B9AB2FB685A85664B1B68DB0814
:10328C00654AA2FB03231A0A13469B001344DA0077
:10329C00D31A3B623B6A013B3B623B6A002B18D161
:1032AC00FB6800221A63FB68202283F83D20FB6830
:1032BC00002283F83E20FB681B6C43F02002FB6865
:1032CC001A6462B600BFFB68002283F83C2001231D
:1032DC009AE0FB681B685B6903F00403042BD9D1EB
:1032EC00FB681B681A68FB681B6842F400721A6062
:1032FC00FB681B681A69FB685B6AD2B21A70FB68C0
:10330C005B6A5A1CFB685A62FB681B8D013B9AB2C4
:10331C00FB681A85FB685B8D9BB2013B9AB2FB681C
:10332C005A8562B600BFFB681B681A69FB685B6A4A
:10333C00D2B21A70FB685B6A5A1CFB685A62FB6853
:10334C001B8D013B9AB2FB681A85FB685B8D9BB2A7
:10335C00013B9AB2FB685A8542E07A6AB96BF8680D
:10336C0000F006FC0346002B01D001234CE0FB6867
:10337C001B681A69FB685B6AD2B21A70FB685B6ADD
:10338C005A1CFB685A62FB681B8D013B9AB2FB68A6
:10339C001A85FB685B8D9BB2013B9AB2FB685A8520
:1033AC00FB681B685B6903F00403042B18D1FB68F2
:1033BC001B681A69FB685B6AD2B21A70FB685B6A9D
:1033CC005A1CFB685A62FB681B8D013B9AB2FB6866
:1033DC001A85FB685B8D9BB2013B9AB2FB685A85E0
:1033EC00FB681B8D002B7FF494AEFB68202283F8C6
:1033FC003D20FB68002283F83E20FB68002283F806
:10340C003C20002300E0022318462837BD4680BD2F
:10341C00040001001C00002089B5F81480B588B0A8
:10342C0002AFF8607A603B600B467B81FB68DB6A1D
:10343C007B617B69082B06D07B69012B03D07B69F0
:10344C0013F5803F08D1FB681B681A68FB681B6882
:10345C0042F480721A600BE0FB681B6B122B07D1D5
:10346C00FB681B681A68FB681B6842F480721A6060
:10347C003B6800937B6800224FF00111F86800F064
:10348C00CDF90346002B0DD0FB681B681B6803F4B9
:10349C008073B3F5807F03D1FB684FF400721A641C
:1034AC00032335E0FB681B69B3F5804F08D17B899A
:1034BC00DBB21A46FB681B6802F0FE021A611BE0C5
:1034CC007B89DB11DBB203F00603DBB263F00F0385
:1034DC00DAB2FB681B681A613B687A680E49F868B7
:1034EC0000F016FA0346002B01D0012310E07B8973
:1034FC00DAB2FB681B681A613B687A680749F8689E
:10350C0000F006FA0346002B01D0012300E0002353
:10351C0018461837BD4680BD0800010002000100A6
:10352C0080B588B002AFF860084611461A460346CB
:10353C007B810B463B811346FB80FB681B681A683A
:10354C00FB681B6842F480721A607B6A00933B6ACA
:10355C0000224FF00111F86800F060F90346002BCF
:10356C000DD0FB681B681B6803F48073B3F5807F78
:10357C0003D1FB684FF400721A6403235FE07B896C
:10358C00DBB21A46FB681B6802F0FE021A617B6A0A
:10359C003A6A2D49F86800F0BBF90346002B01D0BC
:1035AC0001234CE000237B61FB681B685B697B613A
:1035BC00FB681B689B697B617B697A6A396AF8686E
:1035CC0000F046FA0346002B0DD0FB681B6C042B55
:1035DC0007D1FB681B681A68FB681B6842F4007211
:1035EC001A6001232BE0FB88012B05D13B89DAB251
:1035FC00FB681B681A6121E03B891B0A9BB2DAB29B
:10360C00FB681B681A617A6A396AF86800F020FA5C
:10361C000346002B0DD0FB681B6C042B07D1FB68F9
:10362C001B681A68FB681B6842F400721A6001235D
:10363C0005E03B89DAB2FB681B681A610023184667
:10364C001837BD4680BD00BF0200010080B588B0B0
:10365C0002AFF860084611461A4603467B810B46BA
:10366C003B811346FB80FB681B681A68FB681B6870
:10367C0042F480621A60FB681B681A68FB681B685E
:10368C0042F480721A607B6A00933B6A00224FF00E
:10369C000111F86800F0C2F80346002B0DD0FB684E
:1036AC001B681B6803F48073B3F5807F03D1FB6840
:1036BC004FF400721A640323AAE07B89DBB21A462A
:1036CC00FB681B6802F0FE021A617B6A3A6A524977
:1036DC00F86800F01DF90346002B01D0012397E098
:1036EC0000237B61FB681B685B697B61FB681B6863
:1036FC009B697B617B697A6A396AF86800F0A8F982
:10370C000346002B0DD0FB681B6C042B07D1FB6808
:10371C001B681A68FB681B6842F400721A6001236C
:10372C0076E0FB88012B05D13B89DAB2FB681B687C
:10373C001A6121E03B891B0A9BB2DAB2FB681B6859
:10374C001A617A6A396AF86800F082F90346002B2C
:10375C000DD0FB681B6C042B07D1FB681B681A6827
:10376C00FB681B6842F400721A60012350E03B892D
:10377C00DAB2FB681B681A617A6A396AF86800F079
:10378C0067F90346002B0DD0FB681B6C042B07D18B
:10379C00FB681B681A68FB681B6842F400721A60AD
:1037AC00012335E0FB681B681A68FB681B6842F450
:1037BC0080721A607B6A00933B6A00224FF0011101
:1037CC00F86800F02BF80346002B0DD0FB681B6843
:1037DC001B6803F48073B3F5807F03D1FB684FF44F
:1037EC0000721A64032313E07B89DBB243F00103FC
:1037FC00DAB2FB681B681A617B6A3A6A0649F86898
:10380C0000F086F80346002B01D0012300E00023D2
:10381C0018461837BD4680BD0200010080B584B043
:10382C0000AFF860B9603B601346FB7148E03B6841
:10383C00B3F1FF3F44D0FEF713FD0246BB69D31A28
:10384C003A689A4202D33B68002B39D1BB681B0CF7
:10385C00DBB2012B0DD1FB681B685B69DA43BB68DB
:10386C0013409BB2002B0CBF01230023DBB21A4682
:10387C000CE0FB681B689B69DA43BB6813409BB286
:10388C00002B0CBF01230023DBB21A46FB799A42B2
:10389C0016D1FB6800221A63FB68202283F83D20B6
:1038AC00FB68002283F83E20FB681B6C43F020026F
:1038BC00FB681A64FB68002283F83C20012323E098
:1038CC00BB681B0CDBB2012B0DD1FB681B685B6961
:1038DC00DA43BB6813409BB2002B0CBF01230023BF
:1038EC00DBB21A460CE0FB681B689B69DA43BB68C9
:1038FC0013409BB2002B0CBF01230023DBB21A46F2
:10390C00FB799A4293D0002318461037BD4680BDF0
:10391C0080B584B000AFF860B9607A603B6071E04C
:10392C00FB681B685B6903F48063B3F5806F23D17C
:10393C00FB681B681A68FB681B6842F400721A600B
:10394C00FB681B686FF480625A61FB6800221A6383
:10395C00FB68202283F83D20FB68002283F83E2080
:10396C00FB681B6C43F00402FB681A64FB680022C2
:10397C0083F83C20012367E07B68B3F1FF3F41D023
:10398C00FEF76EFC02463B68D31A7A689A4202D361
:10399C007B68002B36D1BB681B0CDBB2012B0CD126
:1039AC00FB681B685B69DA43BB6813409BB2002B56
:1039BC0014BF01230023DBB20BE0FB681B689B697F
:1039CC00DA43BB6813409BB2002B14BF01230023C6
:1039DC00DBB2002B16D0FB6800221A63FB68202296
:1039EC0083F83D20FB68002283F83E20FB681B6CAB
:1039FC0043F02002FB681A64FB68002283F83C2029
:103A0C00012321E0BB681B0CDBB2012B0CD1FB6842
:103A1C001B685B69DA43BB6813409BB2002B14BF75
:103A2C0001230023DBB20BE0FB681B689B69DA43C4
:103A3C00BB6813409BB2002B14BF01230023DBB2E5
:103A4C00002B7FF46DAF002318461037BD4680BDA8
:103A5C0080B584B000AFF860B9607A6034E0F86883
:103A6C0000F0E3F80346002B01D0012334E0BB68DF
:103A7C00B3F1FF3F28D0FEF7F3FB02467B68D31A65
:103A8C00BA689A4202D3BB68002B1DD1FB681B6835
:103A9C005B6903F08003802B16D0FB6800221A634D
:103AAC00FB68202283F83D20FB68002283F83E202F
:103ABC00FB681B6C43F02002FB681A64FB68002255
:103ACC0083F83C20012307E0FB681B685B6903F06B
:103ADC008003802BC3D1002318461037BD4680BD10
:103AEC0080B584B000AFF860B9607A6034E0F868F3
:103AFC0000F09BF80346002B01D0012334E0BB6897
:103B0C00B3F1FF3F28D0FEF7ABFB02467B68D31A1C
:103B1C00BA689A4202D3BB68002B1DD1FB681B68A4
:103B2C005B6903F00403042B16D0FB6800221A63B4
:103B3C00FB68202283F83D20FB68002283F83E209E
:103B4C00FB681B6C43F02002FB681A64FB680022C4
:103B5C0083F83C20012307E0FB681B685B6903F0DA
:103B6C000403042BC3D1002318461037BD4680BD77
:103B7C0080B584B000AFF860B9607A6049E0FB684A
:103B8C001B685B6903F01003102B19D1FB681B68D1
:103B9C006FF010025A61FB6800221A63FB68202246
:103BAC0083F83D20FB68002283F83E20FB681A6CEA
:103BBC00FB681A64FB68002283F83C20012330E088
:103BCC00FEF74EFB02467B68D31ABA689A4202D3C0
:103BDC00BB68002B1DD1FB681B685B6903F04003BD
:103BEC00402B16D0FB6800221A63FB68202283F856
:103BFC003D20FB68002283F83E20FB681B6C43F0E1
:103C0C002002FB681A64FB68002283F83C20012325
:103C1C0007E0FB681B685B6903F04003402BAED1E7
:103C2C00002318461037BD4680BD80B483B000AF6A
:103C3C0078607B681B685B6903F48063B3F5806F05
:103C4C001BD17B681B686FF480625A617B68002211
:103C5C001A637B68202283F83D207B68002283F85E
:103C6C003E207B681B6C43F004027B681A647B6803
:103C7C00002283F83C20012300E0002318460C3777
:103C8C00BD4680BC7047000080B586B000AF786040
:103C9C007B68002B01D1012372E27B681B6803F067
:103CAC000103002B00F08780924B5B6803F00C0340
:103CBC00042B0CD08F4B5B6803F00C03082B12D138
:103CCC008C4B5B6803F48033B3F5803F0BD1894B8D
:103CDC001B6803F40033002B6CD07B685B68002BF3
:103CEC0068D101234CE27B685B68B3F5803F06D159
:103CFC00804B1B687F4A43F4803313602EE07B6853
:103D0C005B68002B0CD17B4B1B687A4A23F4803305
:103D1C001360784B1B68774A23F4802313601DE0F3
:103D2C007B685B68B3F5A02F0CD1724B1B68714A92
:103D3C0043F4802313606F4B1B686E4A43F480334B
:103D4C0013600BE06B4B1B686A4A23F480331360DF
:103D5C00684B1B68674A23F4802313607B685B689D
:103D6C00002B13D0FEF77CFA386108E0FEF778FAE6
:103D7C0002463B69D31A642B01D9032300E25D4B45
:103D8C001B6803F40033002BF0D014E0FEF768FA44
:103D9C00386108E0FEF764FA02463B69D31A642BDB
:103DAC0001D90323ECE1534B1B6803F40033002BC4
:103DBC00F0D100E000BF7B681B6803F00203002B0E
:103DCC0063D04C4B5B6803F00C03002B0BD0494BBE
:103DDC005B6803F00C03082B1CD1464B5B6803F4A7
:103DEC008033002B16D1434B1B6803F00203002BCE
:103DFC0005D07B681B69012B01D00123C0E13D4B31
:103E0C001B6823F0F8027B685B69DB0039491343BC
:103E1C000B603AE07B681B69002B20D0364B0122EB
:103E2C001A60FEF71DFA386108E0FEF719FA02462F
:103E3C003B69D31A022B01D90323A1E12D4B1B683B
:103E4C0003F00203002BF0D02A4B1B6823F0F8027E
:103E5C007B685B69DB00274913430B6015E0264B3D
:103E6C0000221A60FEF7FCF9386108E0FEF7F8F959
:103E7C0002463B69D31A022B01D9032380E11D4B67
:103E8C001B6803F00203002BF0D17B681B6803F066
:103E9C000803002B3AD07B689B69002B19D0174B79
:103EAC0001221A60FEF7DCF9386108E0FEF7D8F958
:103EBC0002463B69D31A022B01D9032360E10D4B57
:103ECC005B6A03F00203002BF0D0012000F0BAFA79
:103EDC001CE00A4B00221A60FEF7C2F938610FE0B1
:103EEC00FEF7BEF902463B69D31A022B08D903230D
:103EFC0046E100BF001002400000424280044242F2
:103F0C00924B5B6A03F00203002BE9D17B681B68C0
:103F1C0003F00403002B00F0A6800023FB758B4BF1
:103F2C00DB6903F08053002B0DD1884BDB69874A8A
:103F3C0043F08053D361854BDB6903F08053BB6046
:103F4C00BB680123FB75824B1B6803F48073002B49
:103F5C0018D17F4B1B687E4A43F480731360FEF7C5
:103F6C007FF9386108E0FEF77BF902463B69D31A0A
:103F7C00642B01D9032303E1754B1B6803F4807395
:103F8C00002BF0D07B68DB68012B06D16F4B1B6AD2
:103F9C006E4A43F0010313622DE07B68DB68002B53
:103FAC000CD16A4B1B6A694A23F001031362674BFD
:103FBC001B6A664A23F0040313621CE07B68DB680F
:103FCC00052B0CD1614B1B6A604A43F0040313624E
:103FDC005E4B1B6A5D4A43F0010313620BE05B4BC3
:103FEC001B6A5A4A23F001031362584B1B6A574A47
:103FFC0023F0040313627B68DB68002B15D0FEF7FB
:10400C002FF938610AE0FEF72BF902463B69D31A07
:10401C0041F28832934201D90323B1E04B4B1B6A26
:10402C0003F00203002BEED014E0FEF719F938610F
:10403C000AE0FEF715F902463B69D31A41F28832C1
:10404C00934201D903239BE0404B1B6A03F002030C
:10405C00002BEED1FB7D012B05D13C4BDB693B4AA0
:10406C0023F08053D3617B68DB69002B00F08780E1
:10407C00364B5B6803F00C03082B61D07B68DB6963
:10408C00022B46D1334B00221A60FEF7E9F8386157
:10409C0008E0FEF7E5F802463B69D31A022B01D97A
:1040AC0003236DE0294B1B6803F00073002BF0D148
:1040BC007B681B6AB3F5803F08D1244B5B6823F403
:1040CC0000327B689B68214913434B601F4B5B6834
:1040DC0023F474127B68196A7B685B6A0B431B4977
:1040EC0013434B601B4B01221A60FEF7B9F8386181
:1040FC0008E0FEF7B5F802463B69D31A022B01D94A
:10410C0003233DE0114B1B6803F00073002BF0D030
:10411C0035E0104B00221A60FEF7A2F8386108E077
:10412C00FEF79EF802463B69D31A022B01D90323F2
:10413C0026E0064B1B6803F00073002BF0D11EE049
:10414C007B68DB69012B07D1012319E000100240C9
:10415C0000700040600042420B4B5B68FB60FB68E8
:10416C0003F480327B681B6A9A4206D1FB6803F425
:10417C0070127B685B6A9A4201D0012300E0002335
:10418C0018461837BD4680BD0010024080B584B07B
:10419C0000AF786039607B68002B01D10123D0E03F
:1041AC006A4B1B6803F007033A689A4210D9674BB5
:1041BC001B6823F0070265493B6813430B60634B94
:1041CC001B6803F007033A689A4201D00123B8E058
:1041DC007B681B6803F00203002B20D07B681B68F4
:1041EC0003F00403002B05D0594B5B68584A43F489
:1041FC00E06353607B681B6803F00803002B05D059
:10420C00534B5B68524A43F460535360504B5B68AA
:10421C0023F0F0027B689B684D4913434B607B682D
:10422C001B6803F00103002B40D07B685B68012BFB
:10423C0007D1474B1B6803F40033002B15D1012326
:10424C007FE07B685B68022B07D1414B1B6803F056
:10425C000073002B09D1012373E03D4B1B6803F065
:10426C000203002B01D101236BE0394B5B6823F077
:10427C0003027B685B68364913434B60FDF7F0FF24
:10428C00F8600AE0FDF7ECFF0246FB68D31A41F236
:10429C008832934201D9032353E02D4B5B6803F022
:1042AC000C027B685B689B009A42EBD1274B1B6826
:1042BC0003F007033A689A4210D2244B1B6823F090
:1042CC00070222493B6813430B60204B1B6803F029
:1042DC0007033A689A4201D0012332E07B681B68DD
:1042EC0003F00403002B08D0194B5B6823F4E06245
:1042FC007B68DB68164913434B607B681B6803F0D3
:10430C000803002B09D0124B5B6823F460527B68C6
:10431C001B69DB000E4913434B6000F021F8024689
:10432C000B4B5B681B0903F00F030A49CB5C22FAA9
:10433C0003F3094A1360094B1B681846FDF74EFF3F
:10434C00002318461037BD4680BD00BF0020024038
:10435C0000100240285900081C00002020000020FA
:10436C0080B487B000AF0023FB600023BB60002348
:10437C007B6100237B6000233B611E4B5B68FB6011
:10438C00FB6803F00C03042B02D0082B03D027E0AE
:10439C00194B3B6127E0FB689B0C03F00F03174A9A
:1043AC00D35C7B60FB6803F48033002B10D0114B83
:1043BC005B685B0C03F00103114AD35CBB607B6848
:1043CC000D4A03FB02F2BB68B2FBF3F37B6104E022
:1043DC007B680C4A02FB03F37B617B693B6102E067
:1043EC00054B3B6100BF3B6918461C37BD4680BC82
:1043FC00704700BF0010024000127A0040590008BC
:10440C005059000800093D0080B400AF024B1B68F6
:10441C001846BD4680BC70471C00002080B500AF1C
:10442C00FFF7F2FF0246054B5B681B0A03F007031C
:10443C000349CB5C22FA03F3184680BD00100240FE
:10444C003859000880B485B000AF78600A4B1B68FF
:10445C000A4AA2FB03235B0A7A6802FB03F3FB60A4
:10446C0000BFFB685A1EFA60002BF9D100BF00BFD9
:10447C001437BD4680BC70471C000020D34D621021
:10448C0080B582B000AF78607B68002B01D101232E
:10449C0041E07B6893F83D30DBB2002B06D17B68A2
:1044AC00002283F83C207868FDF75CFD7B680222D3
:1044BC0083F83D207B681A687B68043319461046E4
:1044CC0000F0A2FA7B68012283F846207B68012267
:1044DC0083F83E207B68012283F83F207B68012211
:1044EC0083F840207B68012283F841207B680122FD
:1044FC0083F842207B68012283F843207B680122E9
:10450C0083F844207B68012283F845207B680122D4
:10451C0083F83D20002318460837BD4680BD0000B7
:10452C0080B485B000AF78607B6893F83D30DBB227
:10453C00012B01D001233AE07B68022283F83D2055
:10454C007B681B68DA687B681B6842F00102DA60E2
:10455C007B681B68184A93420ED07B681B68B3F1CA
:10456C00804F09D07B681B68144A934204D07B6847
:10457C001B68134A934211D17B681B689B6803F03C
:10458C000703FB60FB68062B10D07B681B681A685E
:10459C007B681B6842F001021A6007E07B681B68AD
:1045AC001A687B681B6842F001021A6000231846E7
:1045BC001437BD4680BC7047002C014000040040FD
:1045CC000008004080B483B000AF78607B681B6843
:1045DC00DA687B681B6822F00102DA607B681B6872
:1045EC001A6A41F211131340002B0FD17B681B6820
:1045FC001A6A40F244431340002B07D17B681B68B6
:10460C001A687B681B6822F001021A607B68012221
:10461C0083F83D20002318460C37BD4680BC7047FC
:10462C0080B582B000AF78607B681B681B6903F0B3
:10463C000203022B22D17B681B68DB6803F00203A8
:10464C00022B1BD17B681B686FF002021A617B681E
:10465C0001221A777B681B689B6903F00303002B0C
:10466C0003D0786800F0B4F905E0786800F0A7F999
:10467C00786800F0B6F97B6800221A777B681B68B3
:10468C001B6903F00403042B22D17B681B68DB68D5
:10469C0003F00403042B1BD17B681B686FF004022E
:1046AC001A617B6802221A777B681B689B6903F48A
:1046BC004073002B03D0786800F08AF905E0786825
:1046CC0000F07DF9786800F08CF97B6800221A778D
:1046DC007B681B681B6903F00803082B22D17B68DD
:1046EC001B68DB6803F00803082B1BD17B681B6875
:1046FC006FF008021A617B6804221A777B681B68CA
:10470C00DB6903F00303002B03D0786800F060F939
:10471C0005E0786800F053F9786800F062F97B687E
:10472C0000221A777B681B681B6903F01003102B9F
:10473C0022D17B681B68DB6803F01003102B1BD1A4
:10474C007B681B686FF010021A617B6808221A776D
:10475C007B681B68DB6903F44073002B03D078681B
:10476C0000F036F905E0786800F029F9786800F077
:10477C0038F97B6800221A777B681B681B6903F089
:10478C000103012B0ED17B681B68DB6803F001036E
:10479C00012B07D17B681B686FF001021A617868E6
:1047AC00FDF7FCFA7B681B681B6903F08003802B08
:1047BC000ED17B681B68DB6803F08003802B07D16C
:1047CC007B681B686FF080021A61786800F07BFAD6
:1047DC007B681B681B6903F04003402B0ED17B6880
:1047EC001B68DB6803F04003402B07D17B681B6818
:1047FC006FF040021A61786800F0FCF87B681B6867
:10480C001B6903F02003202B0ED17B681B68DB682F
:10481C0003F02003202B07D17B681B686FF020026C
:10482C001A61786800F046FA00BF0837BD4680BDB3
:10483C0080B584B000AF786039600023FB737B686F
:10484C0093F83C30012B01D10223B4E07B680122A8
:10485C0083F83C207B68022283F83D207B681B6830
:10486C009B68BB60BB6823F07703BB60BB6823F419
:10487C007F43BB607B681B68BA689A603B681B68A7
:10488C00B3F5005F3ED0B3F5005F00F28780B3F55F
:10489C00805F00F08680B3F5805F7FD8702B1AD0D4
:1048AC00702B7BD8602B50D0602B77D8502B3CD002
:1048BC00502B73D8402B58D0402B6FD8302B64D052
:1048CC00302B6BD8202B60D0202B67D8002B5CD0E2
:1048DC00102B5AD062E07B6818683B6899683B687B
:1048EC005A683B68DB6800F068F97B681B689B685A
:1048FC00BB60BB6843F07703BB607B681B68BA681E
:10490C009A604FE07B6818683B6899683B685A6806
:10491C003B68DB6800F051F97B681B689A687B6820
:10492C001B6842F480429A603CE07B6818683B68E4
:10493C0059683B68DB681A4600F0C8F87B681B684E
:10494C005021184600F01FF92CE07B6818683B6872
:10495C0059683B68DB681A4600F0E6F87B681B6810
:10496C006021184600F00FF91CE07B6818683B6862
:10497C0059683B68DB681A4600F0A8F87B681B682E
:10498C004021184600F0FFF80CE07B681A683B6881
:10499C001B681946104600F0F6F803E00123FB7380
:1049AC0000E000BF7B68012283F83D207B68002279
:1049BC0083F83C20FB7B18461037BD4680BD80B485
:1049CC0083B000AF786000BF0C37BD4680BC704729
:1049DC0080B483B000AF786000BF0C37BD4680BC9C
:1049EC00704780B483B000AF786000BF0C37BD4611
:1049FC0080BC704780B483B000AF786000BF0C37C8
:104A0C00BD4680BC7047000080B485B000AF7860B4
:104A1C0039607B681B68FB607B68294A93420BD02A
:104A2C007B68B3F1804F07D07B68264A934203D052
:104A3C007B68254A934208D1FB6823F07003FB6026
:104A4C003B685B68FA681343FB607B681C4A9342C3
:104A5C000BD07B68B3F1804F07D07B68194A934227
:104A6C0003D07B68184A934208D1FB6823F4407347
:104A7C00FB603B68DB68FA681343FB60FB6823F060
:104A8C0080023B685B691343FB607B68FA681A60C1
:104A9C003B689A687B68DA623B681A687B689A6242
:104AAC007B68074A934203D13B681A697B681A6397
:104ABC007B6801225A6100BF1437BD4680BC704729
:104ACC00002C0140000400400008004080B487B076
:104ADC0000AFF860B9607A60FB681B6A7B61FB68A9
:104AEC001B6A23F00102FB681A62FB689B693B613D
:104AFC003B6923F0F0033B617B681B013A6913436C
:104B0C003B617B6923F00A037B617A69BB681343C1
:104B1C007B61FB683A699A61FB687A691A6200BF2B
:104B2C001C37BD4680BC704780B487B000AFF860BE
:104B3C00B9607A60FB681B6A7B61FB681B6A23F0B7
:104B4C001002FB681A62FB689B693B613B6923F4AA
:104B5C0070433B617B681B033A6913433B617B6980
:104B6C0023F0A0037B61BB681B017A6913437B6153
:104B7C00FB683A699A61FB687A691A6200BF1C3754
:104B8C00BD4680BC704780B485B000AF786039609A
:104B9C007B689B68FB60FB6823F07003FB603A68E2
:104BAC00FB68134343F00703FB607B68FA689A6069
:104BBC0000BF1437BD4680BC704780B487B000AFCF
:104BCC00F860B9607A603B60FB689B687B617B69CD
:104BDC0023F47F437B613B681A027B681A43BB68F2
:104BEC0013437A6913437B61FB687A699A6000BF4F
:104BFC001C37BD4680BC704780B485B000AF786070
:104C0C0039607B6893F83C30012B01D1022346E0DC
:104C1C007B68012283F83C207B68022283F83D20CC
:104C2C007B681B685B68FB607B681B689B68BB6070
:104C3C00FB6823F07003FB603B681B68FA68134346
:104C4C00FB607B681B68FA685A607B681B68164AB5
:104C5C0093420ED07B681B68B3F1804F09D07B6800
:104C6C001B68124A934204D07B681B68104A93421B
:104C7C000CD1BB6823F08003BB603B685B68BA68EF
:104C8C001343BB607B681B68BA689A607B6801221F
:104C9C0083F83D207B68002283F83C2000231846D3
:104CAC001437BD4680BC7047002C01400004004006
:104CBC000008004080B483B000AF786000BF0C37B0
:104CCC00BD4680BC704780B483B000AF786000BF35
:104CDC000C37BD4680BC704780B586B002AF03462A
:104CEC00FB71FB7923F00F03FB73FB791B01BB7387
:104CFC00FB7B43F00C03DBB23B72FB7B43F0080302
:104D0C00DBB27B72BB7B43F00C03DBB2BB72BB7BB5
:104D1C0043F00803DBB2FB7207F108026423009333
:104D2C0004234E210348FDF719FF00BF1037BD4681
:104D3C0080BD00BF9400002080B586B002AF034652
:104D4C00FB71FB7923F00F03FB73FB791B01BB7326
:104D5C00FB7B43F00D03DBB23B72FB7B43F009039F
:104D6C00DBB27B72BB7B43F00D03DBB2BB72BB7B54
:104D7C0043F00903DBB2FB7207F1080264230093D2
:104D8C0004234E210348FDF7E9FE00BF1037BD4652
:104D9C0080BD00BF9400002080B582B000AF8020A1
:104DAC00FFF79AFF00237B6005E02020FFF7C4FF8C
:104DBC007B6801337B607B68452BF6DD00BF00BF51
:104DCC000837BD4680BD80B582B000AF78603960D1
:104DDC007B68002B03D07B68012B05D009E03B6876
:104DEC0043F080033B6004E03B6843F0C0033B604E
:104DFC0000BF3B68DBB21846FFF76EFF00BF0837F9
:104E0C00BD4680BD80B500AF3220FDF733FA3020AF
:104E1C00FFF762FF0520FDF72DFA3020FFF75CFF4E
:104E2C000120FDF727FA3020FFF756FF0A20FDF787
:104E3C0021FA2020FFF750FF0A20FDF71BFA28204B
:104E4C00FFF74AFF0120FDF715FA0820FFF744FF92
:104E5C000120FDF70FFA0120FFF73EFF0120FDF7BF
:104E6C0009FA0120FDF706FA0620FFF735FF0120AD
:104E7C00FDF700FA0C20FFF72FFF00BF80BD80B5B7
:104E8C0082B000AF786006E07B685A1C7A601B78B1
:104E9C001846FFF751FF7B681B78002BF4D100BF3D
:104EAC0000BF0837BD4680BD0EB46FF0004100B5A1
:104EBC009CB01DAB029006900791049108480949DB
:104ECC0053F8042B0591006802A9019300F08EF9A8
:104EDC000022029B1A701CB05DF804EB03B0704703
:104EEC00740000200802FFFF03460244934200D1E5
:104EFC00704703F8011BF9E7014B1868704700BFB6
:104F0C007400002070B500260C4D0D4C641BA410D1
:104F1C00A64209D100F07AFC00260A4D0A4C641B0B
:104F2C00A410A64205D170BD55F8043B9847013634
:104F3C00EEE755F8043B98470136F2E7885900082C
:104F4C0088590008885900088C5900087047704728
:104F5C0038B50546002940D051F8043C0C1F002BF5
:104F6C00B8BFE41800F0DCF81C4A136833B963606E
:104F7C0014602846BDE8384000F0D8B8A34208D9E0
:104F8C00206821188B4201BF19685B6809182160E1
:104F9C00EDE71A465B680BB1A342FAD911685018B9
:104FAC00A0420BD120680144501883421160E0D11B
:104FBC0018685B68084410605360DAE702D90C2368
:104FCC002B60D6E7206821188B4201BF19685B68FB
:104FDC000918216063605460CBE738BDB004002031
:104FEC0070B50E4E0C463168054611B900F0AAFB9F
:104FFC0030602146284600F0A5FB431C0AD0C41C97
:10500C0024F00304A04207D0211A284600F09AFB92
:10501C00013001D14FF0FF34204670BDB4040020A4
:10502C002DE9F843CD1C25F0030508350C2D38BFB0
:10503C000C25002D074601DBA94205D90C230026BF
:10504C003B603046BDE8F883DFF8D08000F068F8AC
:10505C00D8F800301C465CBB29463846FFF7C0FF29
:10506C00431C044655D1D8F800402646002E45D1A5
:10507C00002C48D023683146384604EB030900F075
:10508C0061FB81453FD1216838466D1A2946FFF7EF
:10509C00A7FF013037D023682B442360D8F80030A9
:1050AC00002B38D05A68A2422BD100225A600FE054
:1050BC002268521B1FD40B2A17D96119A3422560F1
:1050CC0018BF5960636808BFC8F8001062514B6084
:1050DC00384604F10B0600F029F826F00706231DCC
:1050EC00F21AAED09B1BA350ABE7A3426268DDD192
:1050FC00C8F80020ECE723466468ACE734467668D1
:10510C00B4E71346CCE70C2338463B6000F00EF8AE
:10511C0097E72560DCE75B60FFDE00BFB004002092
:10512C000148FFF713BF00BFAC0400200148FFF794
:10513C000EBF00BFAC0400202DE9F0471F468E685F
:10514C008246BE420C4690460B682CD88A8912F4D3
:10515C00906F26D06569096905EB4505A3EB01093C
:10516C0005EBD5757B1C4B446D109D4238BF1D461D
:10517C00530527D52946FFF753FF064660B34A4629
:10518C00216900F0FDFAA38923F4906343F08003B6
:10519C00A38126614E4426603E466561A5EB090558
:1051AC00A560BE4200D93E4632464146206800F01A
:1051BC00AFFA0020A3689B1BA360236833442360D1
:1051CC00BDE8F0872A4600F0E9FA06460028E0D14F
:1051DC0050462169FFF7BCFE0C23CAF80030A389A6
:1051EC004FF0FF3043F04003A381E9E72DE9F04F86
:1051FC0098468B8907461B060D4614469DB00ED566
:10520C000B6963B94021FFF70BFF2860286120B9B7
:10521C000C233B604FF0FF30D0E040236B61002348
:10522C00099320238DF8293030234FF00109CDF854
:10523C000C80DFF8A0818DF82A3023469A4613F8AB
:10524C00012B0AB1252AF9D1BAEB040B0BD05B4622
:10525C00224629463846FFF76FFF013000F0A9803F
:10526C00099A5A4409929AF80030002B00F0A18058
:10527C0000234FF0FF32CDE905230AF1010A049314
:10528C0007938DF853301A935446052214F8011BDA
:10529C00504800F067FA049AD8B9D00644BF2023CE
:1052AC008DF85330110744BF2B238DF853309AF8E7
:1052BC0000302A2B15D0544600204FF00A0C079AC8
:1052CC00214611F8013B303B092B4DD9B0B1079267
:1052DC0014E0A0EB080309FA03F31343A24604936A
:1052EC00D2E7039B191D1B680391002BBBBF5B42CC
:1052FC0042F0020207930793B8BF049223782E2B37
:10530C000CD163782A2B34D1039B02341A1D1B68F1
:10531C000392002BB8BF4FF0FF330593DFF8B8A012
:10532C0003225046217800F01DFA38B14022049B2C
:10533C00A0EB0A00824013430134049314F8011BC0
:10534C00062226488DF8281000F00CFA002838D0D8
:10535C00234B1BBB039B073323F007030833039337
:10536C00099B3344099368E70C4601200CFB02327D
:10537C00A6E700234FF00A0C19460134059320468A
:10538C0010F8012B303A092A03D9002BC6D005910D
:10539C00C4E7044601230CFB0121F0E703AB0093A7
:1053AC002A4638460F4B04A9AFF30080421C064630
:1053BC00D6D1AB895B063FF52DAF09981DB0BDE882
:1053CC00F08F03AB00932A463846064B04A900F035
:1053DC007DF8EBE752590008585900085C59000851
:1053EC0000000000455100082DE9F047164699468B
:1053FC008A680B6907469342B8BF1346336091F82D
:10540C0043200C46DDF820800AB101333360236859
:10541C00990642BF336802333360256815F00605E0
:10542C0006D104F1190AE36832689B1AAB422BDCF3
:10543C0094F84320131E226818BF0123920630D41F
:10544C004946384604F14302C047013023D0236853
:10545C00226903F00603042B14BF002533684FF0B8
:10546C00000608BFE56804F11A0408BFED1A54F8E9
:10547C00123C08BF25EAE5759342C4BF9B1AED1890
:10548C00B5421AD1002008E001235246494638465D
:10549C00C047013003D14FF0FF30BDE8F087013534
:1054AC00C1E73020E11881F843005A1C94F84510EC
:1054BC002244023382F84310C2E7012322464946B4
:1054CC003846C0470130E6D00136D9E72DE9FF4711
:1054DC000F7E9146782F80460C469A460C9D01F122
:1054EC00430207D8622F0AD8002F00F0D580582F1E
:1054FC0000F0C18004F1420584F842703AE0A7F153
:10550C006303152BF6D801A151F823F0715500084F
:10551C008555000801550008015500080155000883
:10552C000155000885550008015500080155000873
:10553C0001550008015500088B560008B1550008AC
:10554C00455600080155000801550008AD560008E5
:10555C0001550008B1550008015500080155000817
:10556C004D5600082B681A1D1B682A6004F1420571
:10557C0084F842300123A0E020682B68070603F171
:10558C000401296001D51E6803E04606FBD5B3F97A
:10559C000060002E03DA2D23764284F843300A2370
:1055AC00594812E02B682068191D2960050601D5A1
:1055BC001E6802E04106FBD51E886F2F0CBF082326
:1055CC000A235148002184F843106568002DA8BFB8
:1055DC002168A560A4BF21F0040121600EB9002D43
:1055EC004BD01546B6FBF3F103FB1167C75D05F80D
:1055FC00017D3746BB420E46F4D9082B0BD12368EC
:10560C00DE0708D5236961689942DEBF302305F8AF
:10561C00013C05F1FF35521B22614B4621464046A9
:10562C00CDF800A003AAFFF7DFFE01304AD14FF0FE
:10563C00FF3004B0BDE8F087236843F020032360FB
:10564C007827324884F84570236829681F0651F87A
:10565C00046B02D45F0648BFB6B2DF0748BF43F005
:10566C002003296048BF23601EB9236823F0200360
:10567C0023601023A6E72448E4E71546BDE72B6812
:10568C002668181D6169286035061B6801D51960EC
:10569C0002E07006FBD51980002315462361BCE798
:1056AC002B6800211A1D2A601D686268284600F0CC
:1056BC0059F808B1401B606063682361002384F8CB
:1056CC004330AAE72A46494640462369D047013071
:1056DC00ADD023689B0713D4E068039B9842B8BFF6
:1056EC001846A6E70123324649464046D0470130CA
:1056FC009DD00135E36803995B1AAB42F2DCEBE712
:10570C00002504F11906F5E76359000874590008DF
:10571C00884210B501EB020402D98442234607D813
:10572C00431EA14208D011F8012B03F8012FF8E712
:10573C00014602448A4200D110BD13F8014D02F813
:10574C00014DF7E738B50023054D044608462B609C
:10575C00FCF7CCFC431C02D12B6803B1236038BD91
:10576C00A8040020034610B5C9B20244934218465F
:10577C0001D1002003E0047801338C42F6D110BD36
:10578C000A44914200F1FF3300D1704710B511F873
:10579C00014B914203F8014FF9D110BD2DE9F041B5
:1057AC00804614460E4621B91146BDE8F041FFF77C
:1057BC0037BC2AB9FFF7CCFB25462846BDE8F0815B
:1057CC0000F01BF88442074602D8B4EB500F12D8F5
:1057DC0021464046FFF724FC05460028EDD0BC428C
:1057EC002246314628BF3A46FFF7CAFF31464046AB
:1057FC00FFF7AEFBE1E73546DFE751F8043C181F35
:10580C00002BBCBF0B58C01870470000F8B500BF88
:10581C00F8BC08BC9E467047F8B500BFF8BC08BC85
:04582C009E467047DD
:105830004E6869657420646F3A2025642E25646F74
:1058400043000000446F20616D3A202025642E251E
:10585000642000004E686170206D6174206B686187
:10586000753A00004D6174206B6861752064756E37
:1058700067202D3E3E0000004D6174206B6861750D
:1058800020736169200000004D6F69206E686170AF
:10589000206C6169202000002A000000253032645D
:1058A000202F2025303264202F20323025303264E2
:1058B0000000000025303264203A20253032642078
:1058C0003A20253032642000300000003100000012
:1058D00032000000330000003400000035000000FA
:1058E00036000000370000003800000039000000DA
:1058F0004F4B202D3E3E00004E6861702073616961
:10590000200000004D6F69206E686170206C616935
:10591000202D3E3E200000006361692062616F20FF
:1059200074687563000000000000000000000000C3
:105930000102030406070809000000000102030435
:1059400002030405060708090A0B0C0D0E0F1010C0
:105950000102232D302B2000686C4C0065666745E2
:1059600046470030313233343536373839414243D7
:105970004445460030313233343536373839616288
:0859800063646566000000008D
:0459880031010008E1
:04598C000D01000801
:10599000C800000001000000010203040506000029
:1059A00001000000010000001E0000000024F400BF
:1059B0001000000001000000000000007003002043
:1059C000D803002040040020000000000000000078
:1059D00000000000000000000000000000000000C7
:1059E00000000000000000000000000000000000B7
:1059F00000000000000000000000000000000000A7
:085A0000000000002800002056
:04000005080021715D
:00000001FF
