:020000040800F2
:10000000005000207D100008490F00084F0F000825
:10001000550F00085B0F0008610F0008000000008A
:10002000000000000000000000000000670F000852
:10003000730F0008000000007F0F00088B0F0008FE
:10004000C5100008C5100008C5100008C51000083C
:10005000C5100008C5100008C5100008970F00085B
:10006000A50F0008B30F0008C10F0008C510000855
:10007000C5100008C5100008C5100008C51000080C
:10008000C5100008C5100008C5100008C5100008FC
:10009000C5100008C5100008C5100008CF0F0008E3
:1000A000C5100008C5100008C5100008C5100008DC
:1000B000DD0F0008F10F0008C5100008C51000088A
:1000C000C5100008C5100008C5100008C5100008BC
:1000D000C5100008C5100008C5100008C5100008AC
:1000E000C5100008C5100008C51000080000000079
:1000F0000000000000000000000000000000000000
:0C01000000000000000000005FF808F1A3
:10010C0010B5054C237833B9044B13B10448AFF345
:10011C0000800123237010BD680000200000000047
:10012C006431000808B5034B1BB103490348AFF316
:10013C00008008BD000000006C0000206431000845
:10014C0080B500AF00F0BAFF00F03CF800F01AF9EF
:10015C0000F07EF800F0C8F8124801F0C1FF124818
:10016C0001F0BEFF00F0A2FD0A2001F009F80F49D2
:10017C000F4800F0F9FD0D4B9B781A460B4BDB78C2
:10018C000C490D4802F036FB084B1B781A46074BFE
:10019C005B780A490A4802F02DFB41F2883000F0E6
:1001AC00EFFFDFE784000020CC0000207801002066
:1001BC00140100207C310008E0010020903100087F
:1001CC00F401002080B590B000AF07F1180328228D
:1001DC000021184602F02EFB3B1D00221A605A60CB
:1001EC009A60DA601A610123BB614FF48033FB61C2
:1001FC0000233B620123BB6202237B634FF48033F9
:10020C00BB634FF4C013FB6307F11803184601F0EE
:10021C00E7FA0346002B01D000F028FE0F237B6089
:10022C000223BB600023FB604FF480633B6100231F
:10023C007B613B1D0221184601F054FD0346002B47
:10024C0001D000F013FE00BF4037BD4680BD00005A
:10025C0080B586B000AF07F1080300221A605A601F
:10026C009A60DA603B4600221A605A601D4B4FF0D0
:10027C0080421A601B4B3F225A601A4B00229A6034
:10028C00184B4FF6FF72DA60164B00221A61154BB1
:10029C0080229A61134801F081FE0346002B01D0A5
:1002AC0000F0E4FD4FF48053BB6007F108031946DE
:1002BC000C4802F04BF80346002B01D000F0D6FDA1
:1002CC0000233B6000237B603B461946054802F047
:1002DC0021FA0346002B01D000F0C8FD00BF1837EF
:1002EC00BD4680BD8400002080B586B000AF07F10C
:1002FC00080300221A605A609A60DA603B460022BA
:10030C001A605A601D4B1E4A1A601C4B3F225A60E1
:10031C001A4B00229A60194B4FF47A72DA60174B21
:10032C0000221A61154B80229A61144801F036FEA6
:10033C000346002B01D000F099FD4FF48053BB60B5
:10034C0007F1080319460D4802F000F80346002B8C
:10035C0001D000F08BFD00233B6000237B603B460B
:10036C001946064802F0D6F90346002B01D000F0DE
:10037C007DFD00BF1837BD4680BD00BFCC000020FE
:10038C000004004080B588B000AF07F110030022D4
:10039C001A605A609A60DA60384B9B69374A43F0AE
:1003AC0020039361354B9B6903F02003FB60FB68D2
:1003BC00324B9B69314A43F0040393612F4B9B6989
:1003CC0003F00403BB60BB682C4B9B692B4A43F0C6
:1003DC0008039361294B9B6903F008037B607B68DE
:1003EC00002240F20171264801F0C9F93E233B611D
:1003FC00244B7B610123BB6107F110031946224892
:10040C0001F022F840F201733B6101237B6102236E
:10041C00BB610223FB6107F110031946184801F078
:10042C0013F800220421072000F0C9FF072000F078
:10043C00E2FF00220B21082000F0C1FF082000F091
:10044C00DAFF00220B21092000F0B9FF092000F08F
:10045C00D2FF00220B210A2000F0B1FF0A2000F08D
:10046C00CAFF00220B21172000F0A9FF172000F073
:10047C00C2FF00BF2037BD4680BD00BF0010024048
:10048C00000C0140000031100008014080B586B01E
:10049C0000AF0346FB80FB88042B40F0D98000F0B2
:1004AC0065FE0346B74A1360B64B1A68B64B1B6819
:1004BC00D21AB64B1B689A4240F2CA800421B44847
:1004CC0001F046F90346002B40F0BE8000224FF4A9
:1004DC008071B04801F053F901224FF40071AD481E
:1004EC0001F04DF901224FF48061AA4801F047F95F
:1004FC0001220121A74801F042F90421A44801F08E
:10050C0027F90346002B0BD1A34B1B680133A24ADE
:10051C001360A24B01221A60A14801F08FFD7CE010
:10052C0001224FF480719B4801F029F900224FF40D
:10053C000071984801F023F901224FF4806195482D
:10054C0001F01DF901220121924801F018F9042152
:10055C008F4801F0FDF80346002B0BD1914B1B6823
:10056C000133904A13608D4B02221A608C4801F0C3
:10057C0065FD52E001224FF48071864801F0FFF8CE
:10058C0001224FF40071834801F0F9F800224FF476
:10059C008061804801F0F3F8012201217D4801F0CF
:1005AC00EEF804217A4801F0D3F80346002B0BD166
:1005BC007D4B1B6801337C4A1360784B03221A6015
:1005CC00774801F03BFD28E001224FF4807171481F
:1005DC0001F0D5F801224FF400716E4801F0CFF80C
:1005EC0001224FF480616B4801F0C9F8002201210F
:1005FC00684801F0C4F80421654801F0A9F80346E5
:10060C00002B0AD1694B1B680133684A1360634B9A
:10061C000A221A60624801F011FD00224FF4807129
:10062C005C4801F0ACF800224FF40071594801F01D
:10063C00A6F800224FF48061564801F0A0F8002281
:10064C000121544801F09BF84E4B1B684E4A136035
:10065C00FB88082B40F0F68000F088FD0346494AE1
:10066C001360484B1A68484B1B68D21A474B1B68DF
:10067C009A4240F2E7800821454801F069F80346A8
:10068C00002B40F0DB8000224FF48071414801F0D8
:10069C0076F801224FF400713E4801F070F8012207
:1006AC004FF480613B4801F06AF80122012139487E
:1006BC0001F065F80821364801F04AF80346002B92
:1006CC000BD13B4B1B680133394A1360334B04226B
:1006DC001A60334801F0B2FC99E001224FF48071AA
:1006EC002C4801F04CF800224FF40071294801F01D
:1006FC0046F801224FF48061264801F040F80122AF
:10070C000121244801F03BF80821214801F020F890
:10071C000346002B0BD1274B1B680133254A136072
:10072C001E4B05221A601E4801F088FC6FE0012266
:10073C004FF48071174801F022F801224FF4007138
:10074C00144801F01CF800224FF48061114801F0AC
:10075C0016F8012201210F4801F011F808210C486C
:10076C0000F0F6FF0346002B28D1134B1B68013316
:10077C00114A1360094B06221A60094801F05EFC0D
:10078C0045E000BF900100208C01002000000020FB
:10079C0000080140000C0140980100209401002049
:1007AC00CC0000209C010020A0010020C8010020EA
:1007BC00A4010020A8010020AC01002001224FF46C
:1007CC008071B14800F0DBFF01224FF40071AE489C
:1007DC0000F0D5FF01224FF48061AB4800F0CFFF51
:1007EC0000220121A84800F0CAFF0821A74800F008
:1007FC00AFFF0346002B0AD1A54B1B680133A44A5B
:10080C001360A44B0A221A60A34801F017FC0022C3
:10081C004FF480719C4800F0B2FF00224FF400713D
:10082C00994800F0ACFF00224FF48061964800F02C
:10083C00A6FF00220121944800F0A1FF974B1B68F2
:10084C00974A1360FB88102B40F0D98000F08EFC87
:10085C000346924A1360914B1A68914B1B68D21A4B
:10086C00904B1B689A4240F2CA801021874800F0D6
:10087C006FFF0346002B40F0BE8000224FF48071C6
:10088C00814800F07CFF01224FF400717E4800F09B
:10089C0076FF01224FF480617B4800F070FF01224B
:1008AC000121794800F06BFF1021784800F050FFCF
:1008BC000346002B0BD17C4B1B6801337A4A136027
:1008CC00744B07221A60744801F0B8FB7CE00122DB
:1008DC004FF480716C4800F052FF00224FF400710D
:1008EC00694800F04CFF01224FF48061664800F02B
:1008FC0046FF01220121644800F041FF10216348AA
:10090C0000F026FF0346002B0BD1684B1B6801330C
:10091C00664A13605F4B08221A605F4801F08EFB39
:10092C0052E001224FF48071574800F028FF012259
:10093C004FF40071544800F022FF00224FF4806104
:10094C00514800F01CFF012201214F4800F017FF15
:10095C0010214E4800F0FCFE0346002B0BD1544BEB
:10096C001B680133524A13604A4B09221A604A48E9
:10097C0001F064FB28E001224FF48071424800F042
:10098C00FEFE01224FF400713F4800F0F8FE0122F8
:10099C004FF480613C4800F0F2FE002201213A48FD
:1009AC0000F0EDFE1021394800F0D2FE0346002B7A
:1009BC000AD1404B1B6801333E4A1360354B0A2267
:1009CC001A60354801F03AFB00224FF480712E4832
:1009DC0000F0D5FE00224FF400712B4800F0CFFE42
:1009EC0000224FF48061284800F0C9FE002201214A
:1009FC00254800F0C4FE294B1B68294A1360FB886C
:100A0C00202B40F0F38000F0B1FB0346234A136027
:100A1C00224B1A68224B1B68D21A224B1B689A4233
:100A2C0040F2E4802021194800F092FE0346002B8E
:100A3C0040F0D88000224FF48071134800F09FFEE4
:100A4C0001224FF40071104800F099FE01224FF47E
:100A5C0080610D4800F093FE012201210A4800F04C
:100A6C008EFE2021094800F073FE0346002B25D191
:100A7C00114B1B680133104A1360064B0A221A6093
:100A8C00054801F0DBFA96E0000C0140000801403B
:100A9C00CC01002094010020CC000020900100200B
:100AAC008C01002000000020B0010020B4010020C7
:100ABC00B8010020D0010020C001002001224FF419
:100ACC0080716B4800F05BFE00224FF400716848A7
:100ADC0000F055FE01224FF48061654800F04FFE96
:100AEC0001220121624800F04AFE2021614800F0F9
:100AFC002FFE0346002B0BD15F4B1B6801335E4A64
:100B0C0013605E4B00221A605D4801F097FA52E0C8
:100B1C0001224FF48071564800F031FE01224FF44F
:100B2C000071534800F02BFE00224FF480615048B6
:100B3C0000F025FE012201214D4800F020FE20216D
:100B4C004C4800F005FE0346002B0BD14D4B1B68A7
:100B5C0001334C4A1360494B0B221A60484801F090
:100B6C006DFA28E001224FF48071414800F007FE35
:100B7C0001224FF400713E4800F001FE01224FF4B7
:100B8C0080613B4800F0FBFD00220121384800F059
:100B9C00F6FD2021374800F0DBFD0346002B0AD17F
:100BAC00394B1B680133384A1360344B0A221A60E4
:100BBC00334801F043FA00224FF480712C4800F0C6
:100BCC00DEFD00224FF40071294800F0D8FD002210
:100BDC004FF48061264800F0D2FD00220121244808
:100BEC0000F0CDFD294B1B68294A1360FB88022BB2
:100BFC003AD1284B1B685B6A274A1360264B1A684C
:100C0C00264B1B68D31A264A1360234B1B68234AB6
:100C1C001360234B1A68234B1B68D1B2224AD15460
:100C2C00204B1B6801331F4A13601E4B1B68542B4F
:100C3C001ADD184801F054FA072000F0EAFB07F11E
:100C4C00080300221A605A609A60DA6000233B6144
:100C5C000123FB600223BB6002237B6107F10803C5
:100C6C001946044800F0F0FB00BF1837BD4680BDA4
:100C7C00000C014000080140BC0100209401002040
:100C8C00CC000020C4010020D401002090010020E1
:100C9C008C01002084000020800100207C010020B9
:100CAC0084010020880100201401002080B584B04C
:100CBC0000AF284801F0C2F9072000F0AAFB264B30
:100CCC0000221A603B4600221A605A609A60DA6071
:100CDC000123BB6000237B6002233B600223FB608B
:100CEC003B4619461D4800F0AFFB012000F048FAC6
:100CFC000023BB6001237B6002233B600223FB606B
:100D0C003B461946154800F09FFB00220221134870
:100D1C0000F035FD142000F033FA0F4B1B68002B4C
:100D2C0006D10C4B1B6800225A620D4B00221A6034
:100D3C0002233B600B4B7B600123BB603B46194697
:100D4C00064800F081FB072000F055FB00BF103770
:100D5C00BD4680BD840000208801002000080140B1
:100D6C007C0100200000311080B584B000AF7860A9
:100D7C003960284801F0B4F9072000F04AFB002341
:100D8C00FB600423BB603DE0FB68002B00DA0733FB
:100D9C00DB1019460A463B6813441A783B680B442F
:100DAC005200D2B21A70BB687A6813441A78BB68C6
:100DBC00013379680B441B789A420DD9FB68002BE0
:100DCC0000DA0733DB1019460A463B681A443B68C5
:100DDC000B4412781A700FE0FB68002B00DA073313
:100DEC00DB1019460A463B6813441A783B680B44DF
:100DFC0042F00102D2B21A70FB680133FB60BB688F
:100E0C000233BB60BB68522BBEDD00BF00BF103786
:100E1C00BD4680BD84000020B0B582B000AF7860C4
:100E2C007B681B68B3F1804F08D10C4BD3E90023CE
:100E3C00541C43F10005094BC3E900457B681B6852
:100E4C00074A934205D1074B01221A60064801F06C
:100E5C0047F900BF0837BD46B0BD00BFD801002020
:100E6C000004004004000020CC00002080B400AF3F
:100E7C0072B600BFFEE7000080B483B000AF0E4B2B
:100E8C009B690D4A43F0010393610B4B9B6903F083
:100E9C0001037B607B68084BDB69074A43F0805396
:100EAC00D361054BDB6903F080533B603B6800BFAB
:100EBC000C37BD4680BC70470010024080B584B032
:100ECC0000AF78607B681B68B3F1804F14D1194B6D
:100EDC00DB69184A43F00103D361164BDB6903F05D
:100EEC000103FB60FB6800220A211C2000F067FA5A
:100EFC001C2000F080FA18E07B681B680E4A9342B5
:100F0C0013D10C4BDB690B4A43F00203D361094B41
:100F1C00DB6903F00203BB60BB6800220C211D20BF
:100F2C0000F04DFA1D2000F066FA00BF1037BD46E8
:100F3C0080BD00BF001002400004004080B400AF30
:100F4C00FEE780B400AFFEE780B400AFFEE780B4EC
:100F5C0000AFFEE780B400AFFEE780B400AF00BF87
:100F6C00BD4680BC704780B400AF00BFBD4680BC9E
:100F7C00704780B400AF00BFBD4680BC704780B5E1
:100F8C0000AF00F0E1F800BF80BD80B500AF0220DB
:100F9C0000F00EFC00BF80BD80B500AF042000F057
:100FAC0007FC00BF80BD80B500AF082000F000FC3E
:100FBC0000BF80BD80B500AF102000F0F9FB00BF72
:100FCC0080BD80B500AF202000F0F2FB00BF80BDDB
:100FDC0080B500AF024801F0B1F800BF80BD00BF82
:100FEC008400002080B500AF024801F0A7F800BFD4
:100FFC0080BD00BFCC00002080B586B000AF78600B
:10100C00144A154BD31A7B617B693B61134B1B68EC
:10101C00002B02D1114B124A1A60104B1A687B68D4
:10102C0013443A699A4207D201F00CFC03460C2295
:10103C001A604FF0FF3309E0084B1B68FB60074B4D
:10104C001A687B681344054A1360FB681846183706
:10105C00BD4680BD005000200004000008020020A6
:10106C005803002080B400AF00BFBD4680BC704761
:10107C00FFF7F8FF0B480C490C4A002302E0D45848
:10108C00C4500433C4188C42F9D3094A094C0023C8
:10109C0001E013600432A242FBD301F0D9FBFFF74D
:1010AC004FF8704700000020640000200032000858
:1010BC006800002058030020FEE7000080B500AF58
:1010CC00084B1B68074A43F010031360032000F021
:1010DC006BF90F2000F008F8FFF7CEFE002318463E
:1010EC0080BD00BF0020024080B582B000AF7860A8
:1010FC00124B1A68124B1B7819464FF47A73B3FBD8
:10110C00F1F3B2FBF3F3184600F091F90346002B10
:10111C0001D001230EE07B680F2B0AD800227968DE
:10112C004FF0FF3000F04BF9064A7B681360002348
:10113C0000E0012318460837BD4680BD080000209A
:10114C00100000200C00002080B400AF054B1B7871
:10115C001A46054B1B681344034A136000BFBD4677
:10116C0080BC7047100000200C02002080B400AF3F
:10117C00024B1B681846BD4680BC70470C02002011
:10118C0080B584B000AF7860FFF7F0FFB8607B6883
:10119C00FB60FB68B3F1FF3F05D00A4B1B781A4686
:1011AC00FB681344FB6000BFFFF7E0FF0246BB681F
:1011BC00D31AFA689A42F7D800BF00BF1037BD4661
:1011CC0080BD00BF1000002080B485B000AF7860F7
:1011DC007B6803F00703FB600C4BDB68BB60BA68F1
:1011EC004FF6FF031340BB60FB681A02BB68134346
:1011FC0043F0BF6343F40033BB60044ABB68D36065
:10120C0000BF1437BD4680BC704700BF00ED00E046
:10121C0080B400AF044BDB681B0A03F007031846CD
:10122C00BD4680BC704700BF00ED00E080B483B0C9
:10123C0000AF0346FB7197F90730002B0BDBFB79F2
:10124C0003F01F02064997F907305B09012000FAE9
:10125C0002F241F8232000BF0C37BD4680BC70471A
:10126C0000E100E080B483B000AF0346FB7197F956
:10127C000730002B12DBFB7903F01F020A4997F9A8
:10128C0007305B09012000FA02F2203341F82320D9
:10129C00BFF34F8F00BFBFF36F8F00BF00BF0C3782
:1012AC00BD4680BC704700BF00E100E080B483B055
:1012BC0000AF03463960FB7197F90730002B0ADB4E
:1012CC003B68DAB20C4997F907301201D2B20B44E1
:1012DC0083F800230AE03B68DAB20849FB7903F093
:1012EC000F03043B1201D2B20B441A7600BF0C3729
:1012FC00BD4680BC704700BF00E100E000ED00E09F
:10130C0080B489B000AFF860B9607A60FB6803F014
:10131C000703FB61FB69C3F10703042B28BF0423FC
:10132C00BB61FB690433062B02D9FB69033B00E06C
:10133C0000237B614FF0FF32BB6902FA03F3DA43FF
:10134C00BB681A407B699A404FF0FF317B6901FA08
:10135C0003F3D9437B680B40134318462437BD462F
:10136C0080BC704780B582B000AF78607B68013B71
:10137C00B3F1807F01D301230FE00A4A7B68013B64
:10138C0053600F214FF0FF30FFF790FF054B002209
:10139C009A60044B07221A60002318460837BD4692
:1013AC0080BD00BF10E000E080B582B000AF786077
:1013BC007868FFF709FF00BF0837BD4680BD80B5D0
:1013CC0086B000AF0346B9607A60FB7300237B6183
:1013DC00FFF71EFF78617A68B9687869FFF790FFAC
:1013EC00024697F90F3011461846FFF75FFF00BF12
:1013FC001837BD4680BD80B582B000AF0346FB7187
:10140C0097F907301846FFF711FF00BF0837BD46A4
:10141C0080BD80B582B000AF0346FB7197F90730F1
:10142C001846FFF71FFF00BF0837BD4680BD80B5CB
:10143C0082B000AF78607868FFF794FF03461846D7
:10144C000837BD4680BD000080B48BB000AF78601B
:10145C00396000237B6200233B6269E101227B6AD5
:10146C0002FA03F3FB613B681B68FA691340BB612A
:10147C00BA69FB699A4240F058813B685B689A4AAA
:10148C0093425ED0984A934275D8984A934258D06A
:10149C00964A93426FD8964A934252D0944A9342BA
:1014AC0069D8944A93424CD0924A934263D8924A58
:1014BC00934246D0904A93425DD8122B2AD8122BD5
:1014CC0059D801A252F823F04F150008291500082D
:1014DC003B1500087D1500088315000883150008CE
:1014EC008315000883150008831500088315000870
:1014FC008315000883150008831500088315000860
:10150C0083150008831500088315000831150008A1
:10151C0045150008794A934213D02CE03B68DB68F0
:10152C003B6229E03B68DB6804333B6224E03B68A8
:10153C00DB6808333B621FE03B68DB680C333B62C3
:10154C001AE03B689B68002B02D104233B6213E03A
:10155C003B689B68012B05D108233B627B68FA69C9
:10156C001A6109E008233B627B68FA695A6103E05F
:10157C0000233B6200E000BFBB69FF2B01D87B68F6
:10158C0001E07B6804337B61BB69FF2B02D87B6A6B
:10159C009B0002E07B6A083B9B003B617B691A68FD
:1015AC000F213B6901FA03F3DB431A40396A3B69AB
:1015BC0001FA03F31A437B691A603B685B6803F01A
:1015CC008053002B00F0B1804D4B9B694C4A43F08B
:1015DC00010393614A4B9B6903F00103BB60BB6839
:1015EC00484A7B6A9B08023352F82330FB607B6AC3
:1015FC0003F003039B000F2202FA03F3DB43FA68A8
:10160C001340FB607B68404A934213D07B683F4A8F
:10161C0093420DD07B683E4A934207D07B683D4A8B
:10162C00934201D1032306E0042304E0022302E0E9
:10163C00012300E000237A6A02F003029200934037
:10164C00FA681343FB602F497B6A9B080233FA68E4
:10165C0041F823203B685B6803F48013002B06D011
:10166C002D4B9A682C49BB6913438B6006E02A4BBF
:10167C009A68BB69DB43284913408B603B685B6805
:10168C0003F40013002B06D0234BDA682249BB6904
:10169C001343CB6006E0204BDA68BB69DB431E4981
:1016AC001340CB603B685B6803F40033002B06D01F
:1016BC00194B5A681849BB6913434B6006E0164B2B
:1016CC005A68BB69DB43144913404B603B685B6849
:1016DC0003F48033002B21D00F4B1A680E49BB69E1
:1016EC0013430B6021E000BF0000321000003110EA
:1016FC000000221000002110000012100000111038
:10170C00001002400000014000080140000C0140A4
:10171C000010014000140140000401400B4B1A68FA
:10172C00BB69DB43094913400B607B6A01337B6265
:10173C003B681A687B6A22FA03F3002B7FF48EAEA7
:10174C0000BF00BF2C37BD4680BC70470004014071
:10175C0080B485B000AF78600B467B807B689A685C
:10176C007B881340002B02D00123FB7301E0002384
:10177C00FB73FB7B18461437BD4680BC704780B4A6
:10178C0083B000AF78600B467B8013467B707B7810
:10179C00002B03D07A887B681A6103E07B881A04DB
:1017AC007B681A6100BF0C37BD4680BC70470000D7
:1017BC0080B582B000AF0346FB80084B5A69FB88AA
:1017CC001340002B06D0054AFB885361FB88184652
:1017DC00FEF75CFE00BF0837BD4680BD000401402B
:1017EC0080B586B000AF78607B68002B01D10123F7
:1017FC0072E27B681B6803F00103002B00F087800A
:10180C00924B5B6803F00C03042B0CD08F4B5B6882
:10181C0003F00C03082B12D18C4B5B6803F4803360
:10182C00B3F5803F0BD1894B1B6803F40033002BBD
:10183C006CD07B685B68002B68D101234CE27B6821
:10184C005B68B3F5803F06D1804B1B687F4A43F43D
:10185C00803313602EE07B685B68002B0CD17B4BD4
:10186C001B687A4A23F480331360784B1B68774AE1
:10187C0023F4802313601DE07B685B68B3F5A02F15
:10188C000CD1724B1B68714A43F4802313606F4B6D
:10189C001B686E4A43F4803313600BE06B4B1B6880
:1018AC006A4A23F480331360684B1B68674A23F43D
:1018BC00802313607B685B68002B13D0FFF756FC0A
:1018CC00386108E0FFF752FC02463B69D31A642BDF
:1018DC0001D9032300E25D4B1B6803F40033002B9A
:1018EC00F0D014E0FFF742FC386108E0FFF73EFC53
:1018FC0002463B69D31A642B01D90323ECE1534B09
:10190C001B6803F40033002BF0D100E000BF7B68B0
:10191C001B6803F00203002B63D04C4B5B6803F095
:10192C000C03002B0BD0494B5B6803F00C03082B0A
:10193C001CD1464B5B6803F48033002B16D1434B10
:10194C001B6803F00203002B05D07B681B69012B7D
:10195C0001D00123C0E13D4B1B6823F0F8027B68EA
:10196C005B69DB00394913430B603AE07B681B6908
:10197C00002B20D0364B01221A60FFF7F7FB3861A1
:10198C0008E0FFF7F3FB02463B69D31A022B01D99F
:10199C000323A1E12D4B1B6803F00203002BF0D0B5
:1019AC002A4B1B6823F0F8027B685B69DB00274934
:1019BC0013430B6015E0264B00221A60FFF7D6FB91
:1019CC00386108E0FFF7D2FB02463B69D31A022BC1
:1019DC0001D9032380E11D4B1B6803F00203002B8C
:1019EC00F0D17B681B6803F00803002B3AD07B68AE
:1019FC009B69002B19D0174B01221A60FFF7B6FB1D
:101A0C00386108E0FFF7B2FB02463B69D31A022BA0
:101A1C0001D9032360E10D4B5B6A03F00203002B39
:101A2C00F0D0012000F09CFA1CE00A4B00221A6056
:101A3C00FFF79CFB38610FE0FFF798FB02463B6910
:101A4C00D31A022B08D9032346E100BF0010024031
:101A5C000000424280044242924B5B6A03F0020354
:101A6C00002BE9D17B681B6803F00403002B00F00A
:101A7C00A6800023FB758B4BDB6903F08053002B96
:101A8C000DD1884BDB69874A43F08053D361854B7A
:101A9C00DB6903F08053BB60BB680123FB75824B91
:101AAC001B6803F48073002B18D17F4B1B687E4A94
:101ABC0043F480731360FFF759FB386108E0FFF7BC
:101ACC0055FB02463B69D31A642B01D9032303E16E
:101ADC00754B1B6803F48073002BF0D07B68DB68BC
:101AEC00012B06D16F4B1B6A6E4A43F00103136244
:101AFC002DE07B68DB68002B0CD16A4B1B6A694AB2
:101B0C0023F001031362674B1B6A664A23F004033C
:101B1C0013621CE07B68DB68052B0CD1614B1B6AE4
:101B2C00604A43F0040313625E4B1B6A5D4A43F048
:101B3C00010313620BE05B4B1B6A5A4A23F001034F
:101B4C001362584B1B6A574A23F0040313627B68D9
:101B5C00DB68002B15D0FFF709FB38610AE0FFF7B3
:101B6C0005FB02463B69D31A41F28832934201D9F4
:101B7C000323B1E04B4B1B6A03F00203002BEED0A6
:101B8C0014E0FFF7F3FA38610AE0FFF7EFFA0246C8
:101B9C003B69D31A41F28832934201D903239BE06B
:101BAC00404B1B6A03F00203002BEED1FB7D012B93
:101BBC0005D13C4BDB693B4A23F08053D3617B68F6
:101BCC00DB69002B00F08780364B5B6803F00C035D
:101BDC00082B61D07B68DB69022B46D1334B00228A
:101BEC001A60FFF7C3FA386108E0FFF7BFFA024644
:101BFC003B69D31A022B01D903236DE0294B1B68D7
:101C0C0003F00073002BF0D17B681B6AB3F5803FA7
:101C1C0008D1244B5B6823F400327B689B68214914
:101C2C0013434B601F4B5B6823F474127B68196A77
:101C3C007B685B6A0B431B4913434B601B4B0122B4
:101C4C001A60FFF793FA386108E0FFF78FFA024643
:101C5C003B69D31A022B01D903233DE0114B1B68BE
:101C6C0003F00073002BF0D035E0104B00221A600B
:101C7C00FFF77CFA386108E0FFF778FA02463B6917
:101C8C00D31A022B01D9032326E0064B1B6803F061
:101C9C000073002BF0D11EE07B68DB69012B07D1B0
:101CAC00012319E000100240007000406000424225
:101CBC000B4B5B68FB60FB6803F480327B681B6A30
:101CCC009A4206D1FB6803F470127B685B6A9A42F5
:101CDC0001D0012300E0002318461837BD4680BD13
:101CEC000010024080B584B000AF786039607B682A
:101CFC00002B01D10123D0E06A4B1B6803F00703D2
:101D0C003A689A4210D9674B1B6823F00702654961
:101D1C003B6813430B60634B1B6803F007033A6883
:101D2C009A4201D00123B8E07B681B6803F00203E0
:101D3C00002B20D07B681B6803F00403002B05D01C
:101D4C00594B5B68584A43F4E06353607B681B68EB
:101D5C0003F00803002B05D0534B5B68524A43F445
:101D6C0060535360504B5B6823F0F0027B689B68B8
:101D7C004D4913434B607B681B6803F00103002B38
:101D8C0040D07B685B68012B07D1474B1B6803F481
:101D9C000033002B15D101237FE07B685B68022B9D
:101DAC0007D1414B1B6803F00073002B09D10123B1
:101DBC0073E03D4B1B6803F00203002B01D10123A0
:101DCC006BE0394B5B6823F003027B685B68364938
:101DDC0013434B60FFF7CAF9F8600AE0FFF7C6F946
:101DEC000246FB68D31A41F28832934201D903238D
:101DFC0053E02D4B5B6803F00C027B685B689B0027
:101E0C009A42EBD1274B1B6803F007033A689A42BE
:101E1C0010D2244B1B6823F0070222493B68134362
:101E2C000B60204B1B6803F007033A689A4201D001
:101E3C00012332E07B681B6803F00403002B08D0FD
:101E4C00194B5B6823F4E0627B68DB68164913432B
:101E5C004B607B681B6803F00803002B09D0124B06
:101E6C005B6823F460527B681B69DB000E491343EB
:101E7C004B6000F021F802460B4B5B681B0903F02A
:101E8C000F030A49CB5C22FA03F3094A1360094B8E
:101E9C001B681846FFF728F9002318461037BD4673
:101EAC0080BD00BF0020024000100240A03100089D
:101EBC00080000200C00002080B487B000AF002385
:101ECC00FB600023BB6000237B6100237B6000234D
:101EDC003B611E4B5B68FB60FB6803F00C03042B3F
:101EEC0002D0082B03D027E0194B3B6127E0FB689D
:101EFC009B0C03F00F03174AD35C7B60FB6803F465
:101F0C008033002B10D0114B5B685B0C03F001038A
:101F1C00114AD35CBB607B680D4A03FB02F2BB68C1
:101F2C00B2FBF3F37B6104E07B680C4A02FB03F326
:101F3C007B617B693B6102E0054B3B6100BF3B6908
:101F4C0018461C37BD4680BC704700BF00100240CD
:101F5C0000127A00B0310008C031000800093D00C1
:101F6C0080B485B000AF78600A4B1B680A4AA2FBAC
:101F7C0003235B0A7A6802FB03F3FB6000BFFB6878
:101F8C005A1EFA60002BF9D100BF00BF1437BD46B2
:101F9C0080BC704708000020D34D621080B582B021
:101FAC0000AF78607B68002B01D1012341E07B6896
:101FBC0093F83D30DBB2002B06D17B68002283F80E
:101FCC003C207868FEF77AFF7B68022283F83D207C
:101FDC007B681A687B6804331946104600F0A2FA35
:101FEC007B68012283F846207B68012283F83E201F
:101FFC007B68012283F83F207B68012283F8402014
:10200C007B68012283F841207B68012283F84220FF
:10201C007B68012283F843207B68012283F84420EB
:10202C007B68012283F845207B68012283F83D20E0
:10203C00002318460837BD4680BD000080B485B02B
:10204C0000AF78607B6893F83D30DBB2012B01D098
:10205C0001233AE07B68022283F83D207B681B68F1
:10206C00DA687B681B6842F00102DA607B681B68E7
:10207C00184A93420ED07B681B68B3F1804F09D08D
:10208C007B681B68144A934204D07B681B68134A14
:10209C00934211D17B681B689B6803F00703FB60BC
:1020AC00FB68062B10D07B681B681A687B681B6862
:1020BC0042F001021A6007E07B681B681A687B68B3
:1020CC001B6842F001021A60002318461437BD4603
:1020DC0080BC7047002C0140000400400008004008
:1020EC0080B483B000AF78607B681B68DA687B686B
:1020FC001B6822F00102DA607B681B681A6A41F2E5
:10210C0011131340002B0FD17B681B681A6A40F225
:10211C0044431340002B07D17B681B681A687B680B
:10212C001B6822F001021A607B68012283F83D20B3
:10213C00002318460C37BD4680BC704780B582B072
:10214C0000AF78607B681B681B6903F00203022BED
:10215C0022D17B681B68DB6803F00203022B1BD1C6
:10216C007B681B686FF002021A617B6801221A7788
:10217C007B681B689B6903F00303002B03D0786812
:10218C0000F0B4F905E0786800F0A7F9786800F081
:10219C00B6F97B6800221A777B681B681B6903F011
:1021AC000403042B22D17B681B68DB6803F0040357
:1021BC00042B1BD17B681B686FF004021A617B68CF
:1021CC0002221A777B681B689B6903F44073002B0F
:1021DC0003D0786800F08AF905E0786800F07DF9A2
:1021EC00786800F08CF97B6800221A777B681B6892
:1021FC001B6903F00803082B22D17B681B68DB6882
:10220C0003F00803082B1BD17B681B686FF00802D6
:10221C001A617B6804221A777B681B68DB6903F000
:10222C000303002B03D0786800F060F905E07868B0
:10223C0000F053F9786800F062F97B6800221A7795
:10224C007B681B681B6903F01003102B22D17B6881
:10225C001B68DB6803F01003102B1BD17B681B6819
:10226C006FF010021A617B6808221A777B681B6872
:10227C00DB6903F44073002B03D0786800F036F967
:10228C0005E0786800F029F9786800F038F97B6887
:10229C0000221A777B681B681B6903F00103012B72
:1022AC000ED17B681B68DB6803F00103012B07D19F
:1022BC007B681B686FF001021A617868FEF7ACFD51
:1022CC007B681B681B6903F08003802B0ED17B6835
:1022DC001B68DB6803F08003802B07D17B681B68CD
:1022EC006FF080021A61786800F07BFA7B681B68DB
:1022FC001B6903F04003402B0ED17B681B68DB6825
:10230C0003F04003402B07D17B681B686FF0400241
:10231C001A61786800F0FCF87B681B681B6903F095
:10232C002003202B0ED17B681B68DB6803F0200395
:10233C00202B07D17B681B686FF020021A6178682C
:10234C0000F046FA00BF0837BD4680BD80B584B0AA
:10235C0000AF786039600023FB737B6893F83C30E6
:10236C00012B01D10223B4E07B68012283F83C20CD
:10237C007B68022283F83D207B681B689B68BB60EE
:10238C00BB6823F07703BB60BB6823F47F43BB605F
:10239C007B681B68BA689A603B681B68B3F5005F82
:1023AC003ED0B3F5005F00F28780B3F5805F00F09C
:1023BC008680B3F5805F7FD8702B1AD0702B7BD8BA
:1023CC00602B50D0602B77D8502B3CD0502B73D82F
:1023DC00402B58D0402B6FD8302B64D0302B6BD87F
:1023EC00202B60D0202B67D8002B5CD0102B5AD020
:1023FC0062E07B6818683B6899683B685A683B6880
:10240C00DB6800F068F97B681B689B68BB60BB6885
:10241C0043F07703BB607B681B68BA689A604FE037
:10242C007B6818683B6899683B685A683B68DB684E
:10243C0000F051F97B681B689A687B681B6842F452
:10244C0080429A603CE07B6818683B6859683B683E
:10245C00DB681A4600F0C8F87B681B6850211846E8
:10246C0000F01FF92CE07B6818683B6859683B68E2
:10247C00DB681A4600F0E6F87B681B68602118469A
:10248C0000F00FF91CE07B6818683B6859683B68E2
:10249C00DB681A4600F0A8F87B681B6840211846D8
:1024AC0000F0FFF80CE07B681A683B681B68194663
:1024BC00104600F0F6F803E00123FB7300E000BFC8
:1024CC007B68012283F83D207B68002283F83C2046
:1024DC00FB7B18461037BD4680BD80B483B000AF7F
:1024EC00786000BF0C37BD4680BC704780B483B0A9
:1024FC0000AF786000BF0C37BD4680BC704780B41D
:10250C0083B000AF786000BF0C37BD4680BC70470D
:10251C0080B483B000AF786000BF0C37BD4680BC80
:10252C007047000080B485B000AF786039607B687C
:10253C001B68FB607B68294A93420BD07B68B3F124
:10254C00804F07D07B68264A934203D07B68254A8C
:10255C00934208D1FB6823F07003FB603B685B6817
:10256C00FA681343FB607B681C4A93420BD07B6870
:10257C00B3F1804F07D07B68194A934203D07B6834
:10258C00184A934208D1FB6823F44073FB603B6804
:10259C00DB68FA681343FB60FB6823F080023B683E
:1025AC005B691343FB607B68FA681A603B689A6846
:1025BC007B68DA623B681A687B689A627B68074AB8
:1025CC00934203D13B681A697B681A637B680122CA
:1025DC005A6100BF1437BD4680BC7047002C0140C7
:1025EC00000400400008004080B487B000AFF860E1
:1025FC00B9607A60FB681B6A7B61FB681B6A23F01D
:10260C000102FB681A62FB689B693B613B6923F022
:10261C00F0033B617B681B013A6913433B617B69A7
:10262C0023F00A037B617A69BB6813437B61FB6807
:10263C003A699A61FB687A691A6200BF1C37BD4619
:10264C0080BC704780B487B000AFF860B9607A6026
:10265C00FB681B6A7B61FB681B6A23F01002FB683A
:10266C001A62FB689B693B613B6923F470433B61D5
:10267C007B681B033A6913433B617B6923F0A0031E
:10268C007B61BB681B017A6913437B61FB683A6908
:10269C009A61FB687A691A6200BF1C37BD4680BC20
:1026AC00704780B485B000AF786039607B689B68F8
:1026BC00FB60FB6823F07003FB603A68FB68134314
:1026CC0043F00703FB607B68FA689A6000BF14371D
:1026DC00BD4680BC704780B487B000AFF860B9606D
:1026EC007A603B60FB689B687B617B6923F47F436A
:1026FC007B613B681A027B681A43BB6813437A6997
:10270C0013437B61FB687A699A6000BF1C37BD4636
:10271C0080BC704780B485B000AF786039607B684E
:10272C0093F83C30012B01D1022346E07B68012257
:10273C0083F83C207B68022283F83D207B681B6871
:10274C005B68FB607B681B689B68BB60FB6823F065
:10275C007003FB603B681B68FA681343FB607B6883
:10276C001B68FA685A607B681B68164A93420ED045
:10277C007B681B68B3F1804F09D07B681B68124AD9
:10278C00934204D07B681B68104A93420CD1BB68FF
:10279C0023F08003BB603B685B68BA681343BB6083
:1027AC007B681B68BA689A607B68012283F83D20BD
:1027BC007B68002283F83C20002318461437BD4662
:1027CC0080BC7047002C0140000400400008004011
:1027DC0080B483B000AF786000BF0C37BD4680BCBE
:1027EC00704780B483B000AF786000BF0C37BD4633
:1027FC0080BC70470EB46FF0004100B59CB01DABAF
:10280C0002900690079104910848094953F8042B4B
:10281C000591006802A9019300F08EF90022029B39
:10282C001A701CB05DF804EB03B070476000002018
:10283C000802FFFF03460244934200D1704703F89D
:10284C00011BF9E7014B1868704700BF60000020BE
:10285C0070B500260C4D0D4C641BA410A64209D17A
:10286C0000F07AFC00260A4D0A4C641BA410A64208
:10287C0005D170BD55F8043B98470136EEE755F885
:10288C00043B98470136F2E7F8310008F8310008AC
:10289C00F8310008FC3100087047704738B5054620
:1028AC00002940D051F8043C0C1F002BB8BFE41891
:1028BC0000F0DCF81C4A136833B9636014602846D6
:1028CC00BDE8384000F0D8B8A34208D920682118D8
:1028DC008B4201BF19685B6809182160EDE71A4645
:1028EC005B680BB1A342FAD911685018A0420BD106
:1028FC0020680144501883421160E0D118685B686D
:10290C00084410605360DAE702D90C232B60D6E739
:10291C00206821188B4201BF19685B680918216077
:10292C0063605460CBE738BD5003002070B50E4E89
:10293C000C463168054611B900F0AAFB30602146FF
:10294C00284600F0A5FB431C0AD0C41C24F0030449
:10295C00A04207D0211A284600F09AFB013001D181
:10296C004FF0FF34204670BD540300202DE9F8438E
:10297C00CD1C25F0030508350C2D38BF0C25002D7A
:10298C00074601DBA94205D90C2300263B603046E3
:10299C00BDE8F883DFF8D08000F068F8D8F8003094
:1029AC001C465CBB29463846FFF7C0FF431C044657
:1029BC0055D1D8F800402646002E45D1002C48D0E1
:1029CC0023683146384604EB030900F061FB81456E
:1029DC003FD1216838466D1A2946FFF7A7FF013011
:1029EC0037D023682B442360D8F80030002B38D024
:1029FC005A68A2422BD100225A600FE02268521B67
:102A0C001FD40B2A17D96119A342256018BF59602E
:102A1C00636808BFC8F8001062514B60384604F177
:102A2C000B0600F029F826F00706231DF21AAED08B
:102A3C009B1BA350ABE7A3426268DDD1C8F8002012
:102A4C00ECE723466468ACE734467668B4E7134693
:102A5C00CCE70C2338463B6000F00EF897E7256076
:102A6C00DCE75B60FFDE00BF500300200148FFF78E
:102A7C0013BF00BF4C0300200148FFF70EBF00BF7F
:102A8C004C0300202DE9F0471F468E688246BE425B
:102A9C000C4690460B682CD88A8912F4906F26D07D
:102AAC006569096905EB4505A3EB010905EBD575CE
:102ABC007B1C4B446D109D4238BF1D46530527D5DA
:102ACC002946FFF753FF064660B34A46216900F0DA
:102ADC00FDFAA38923F4906343F08003A38126615C
:102AEC004E4426603E466561A5EB0905A560BE42D5
:102AFC0000D93E4632464146206800F0AFFA00202D
:102B0C00A3689B1BA360236833442360BDE8F08754
:102B1C002A4600F0E9FA06460028E0D15046216921
:102B2C00FFF7BCFE0C23CAF80030A3894FF0FF302E
:102B3C0043F04003A381E9E72DE9F04F98468B89D8
:102B4C0007461B060D4614469DB00ED50B6963B99E
:102B5C004021FFF70BFF2860286120B90C233B6054
:102B6C004FF0FF30D0E040236B610023099320230A
:102B7C008DF8293030234FF00109CDF80C80DFF8A7
:102B8C00A0818DF82A3023469A4613F8012B0AB1FE
:102B9C00252AF9D1BAEB040B0BD05B462246294609
:102BAC003846FFF76FFF013000F0A980099A5A44AC
:102BBC0009929AF80030002B00F0A18000234FF00E
:102BCC00FF32CDE905230AF1010A049307938DF82E
:102BDC0053301A935446052214F8011B504800F048
:102BEC0067FA049AD8B9D00644BF20238DF8533025
:102BFC00110744BF2B238DF853309AF800302A2B41
:102C0C0015D0544600204FF00A0C079A214611F8B3
:102C1C00013B303B092B4DD9B0B1079214E0A0EB2E
:102C2C00080309FA03F31343A2460493D2E7039B68
:102C3C00191D1B680391002BBBBF5B4242F00202C3
:102C4C0007930793B8BF049223782E2B0CD163788B
:102C5C002A2B34D1039B02341A1D1B680392002BC0
:102C6C00B8BF4FF0FF330593DFF8B8A003225046EE
:102C7C00217800F01DFA38B14022049BA0EB0A0029
:102C8C00824013430134049314F8011B0622264896
:102C9C008DF8281000F00CFA002838D0234B1BBB01
:102CAC00039B073323F0070308330393099B334437
:102CBC00099368E70C4601200CFB0232A6E70023BF
:102CCC004FF00A0C194601340593204610F8012BDD
:102CDC00303A092A03D9002BC6D00591C4E7044623
:102CEC0001230CFB0121F0E703AB00932A46384685
:102CFC000F4B04A9AFF30080421C0646D6D1AB891A
:102D0C005B063FF52DAF09981DB0BDE8F08F03AB06
:102D1C0000932A463846064B04A900F07DF8EBE7F1
:102D2C00C2310008C8310008CC3100080000000096
:102D3C00912A00082DE9F047164699468A680B69D6
:102D4C0007469342B8BF1346336091F843200C46B4
:102D5C00DDF820800AB1013333602368990642BF45
:102D6C00336802333360256815F0060506D104F18B
:102D7C00190AE36832689B1AAB422BDC94F84320A7
:102D8C00131E226818BF0123920630D449463846D8
:102D9C0004F14302C047013023D02368226903F0B9
:102DAC000603042B14BF002533684FF0000608BF40
:102DBC00E56804F11A0408BFED1A54F8123C08BF78
:102DCC0025EAE5759342C4BF9B1AED18B5421AD19A
:102DDC00002008E00123524649463846C0470130DE
:102DEC0003D14FF0FF30BDE8F0870135C1E730204B
:102DFC00E11881F843005A1C94F845102244023320
:102E0C0082F84310C2E70123224649463846C047A0
:102E1C000130E6D00136D9E72DE9FF470F7E914608
:102E2C00782F80460C469A460C9D01F1430207D838
:102E3C00622F0AD8002F00F0D580582F00F0C180E7
:102E4C0004F1420584F842703AE0A7F16303152BB4
:102E5C00F6D801A151F823F0BD2E0008D12E0008A0
:102E6C004D2E00084D2E00084D2E00084D2E00084A
:102E7C00D12E00084D2E00084D2E00084D2E0008B6
:102E8C004D2E0008D72F0008FD2E0008912F0008AA
:102E9C004D2E00084D2E0008F92F00084D2E00086D
:102EAC00FD2E00084D2E00084D2E0008992F00080D
:102EBC002B681A1D1B682A6004F1420584F8423005
:102ECC000123A0E020682B68070603F104012960A8
:102EDC0001D51E6803E04606FBD5B3F90060002E51
:102EEC0003DA2D23764284F843300A23594812E042
:102EFC002B682068191D2960050601D51E6802E0A3
:102F0C004106FBD51E886F2F0CBF08230A2351489E
:102F1C00002184F843106568002DA8BF2168A560C6
:102F2C00A4BF21F0040121600EB9002D4BD0154631
:102F3C00B6FBF3F103FB1167C75D05F8017D37465E
:102F4C00BB420E46F4D9082B0BD12368DE0708D5FB
:102F5C00236961689942DEBF302305F8013C05F115
:102F6C00FF35521B22614B4621464046CDF800A04E
:102F7C0003AAFFF7DFFE01304AD14FF0FF3004B057
:102F8C00BDE8F087236843F020032360782732489C
:102F9C0084F84570236829681F0651F8046B02D425
:102FAC005F0648BFB6B2DF0748BF43F02003296075
:102FBC0048BF23601EB9236823F02003236010232D
:102FCC00A6E72448E4E71546BDE72B682668181DDC
:102FDC006169286035061B6801D5196002E070062E
:102FEC00FBD51980002315462361BCE72B68002113
:102FFC001A1D2A601D686268284600F059F808B14D
:10300C00401B606063682361002384F84330AAE7A7
:10301C002A46494640462369D0470130ADD0236843
:10302C009B0713D4E068039B9842B8BF1846A6E7E9
:10303C000123324649464046D04701309DD00135E8
:10304C00E36803995B1AAB42F2DCEBE7002504F171
:10305C001906F5E7D3310008E4310008884210B5B1
:10306C0001EB020402D98442234607D8431EA14235
:10307C0008D011F8012B03F8012FF8E701460244A0
:10308C008A4200D110BD13F8014D02F8014DF7E74B
:10309C0038B50023054D044608462B60FDF7ACFF00
:1030AC00431C02D12B6803B1236038BD48030020B8
:1030BC00034610B5C9B202449342184601D1002010
:1030CC0003E0047801338C42F6D110BD0A449142DE
:1030DC0000F1FF3300D1704710B511F8014B91424C
:1030EC0003F8014FF9D110BD2DE9F041804614468B
:1030FC000E4621B91146BDE8F041FFF737BC2AB99D
:10310C00FFF7CCFB25462846BDE8F08100F01BF804
:10311C008442074602D8B4EB500F12D821464046E1
:10312C00FFF724FC05460028EDD0BC422246314670
:10313C0028BF3A46FFF7CAFF31464046FFF7AEFBC1
:10314C00E1E73546DFE751F8043C181F002BBCBF04
:10315C000B58C01870470000F8B500BFF8BC08BC8D
:10316C009E467047F8B500BFF8BC08BC9E46704739
:10317C004E6869657420646F3A2025642E25646F4F
:10318C0043000000446F20616D3A202025642E25F9
:10319C006420000000000000000000000102030495
:1031AC000607080902030405060708090A0B0C0D9B
:1031BC000E0F10100102232D302B2000686C4C00D8
:1031CC00656667454647003031323334353637381B
:1031DC003941424344454600303132333435363779
:0C31EC0038396162636465660000000011
:0431F8003101000899
:0431FC000D010008B9
:10320000C8000000010000000024F40010000000CD
:1032100001000000000000001002002078020020E1
:10322000E00200200000000000000000000000009C
:10323000000000000000000000000000000000008E
:10324000000000000000000000000000000000007E
:10325000000000000000000000000000000000006E
:043260001400002036
:040000050800107D62
:00000001FF
